{
  "_format": "hh-sol-artifact-1",
  "contractName": "PrivilegeCard",
  "sourceName": "contracts/PrivilegeCard.sol",
  "abi": [
    {
      "inputs": [
        {
          "internalType": "address",
          "name": "initialOwner",
          "type": "address"
        }
      ],
      "stateMutability": "nonpayable",
      "type": "constructor"
    },
    {
      "inputs": [],
      "name": "ERC721EnumerableForbiddenBatchMint",
      "type": "error"
    },
    {
      "inputs": [
        {
          "internalType": "address",
          "name": "sender",
          "type": "address"
        },
        {
          "internalType": "uint256",
          "name": "tokenId",
          "type": "uint256"
        },
        {
          "internalType": "address",
          "name": "owner",
          "type": "address"
        }
      ],
      "name": "ERC721IncorrectOwner",
      "type": "error"
    },
    {
      "inputs": [
        {
          "internalType": "address",
          "name": "operator",
          "type": "address"
        },
        {
          "internalType": "uint256",
          "name": "tokenId",
          "type": "uint256"
        }
      ],
      "name": "ERC721InsufficientApproval",
      "type": "error"
    },
    {
      "inputs": [
        {
          "internalType": "address",
          "name": "approver",
          "type": "address"
        }
      ],
      "name": "ERC721InvalidApprover",
      "type": "error"
    },
    {
      "inputs": [
        {
          "internalType": "address",
          "name": "operator",
          "type": "address"
        }
      ],
      "name": "ERC721InvalidOperator",
      "type": "error"
    },
    {
      "inputs": [
        {
          "internalType": "address",
          "name": "owner",
          "type": "address"
        }
      ],
      "name": "ERC721InvalidOwner",
      "type": "error"
    },
    {
      "inputs": [
        {
          "internalType": "address",
          "name": "receiver",
          "type": "address"
        }
      ],
      "name": "ERC721InvalidReceiver",
      "type": "error"
    },
    {
      "inputs": [
        {
          "internalType": "address",
          "name": "sender",
          "type": "address"
        }
      ],
      "name": "ERC721InvalidSender",
      "type": "error"
    },
    {
      "inputs": [
        {
          "internalType": "uint256",
          "name": "tokenId",
          "type": "uint256"
        }
      ],
      "name": "ERC721NonexistentToken",
      "type": "error"
    },
    {
      "inputs": [
        {
          "internalType": "address",
          "name": "owner",
          "type": "address"
        },
        {
          "internalType": "uint256",
          "name": "index",
          "type": "uint256"
        }
      ],
      "name": "ERC721OutOfBoundsIndex",
      "type": "error"
    },
    {
      "inputs": [
        {
          "internalType": "address",
          "name": "owner",
          "type": "address"
        }
      ],
      "name": "OwnableInvalidOwner",
      "type": "error"
    },
    {
      "inputs": [
        {
          "internalType": "address",
          "name": "account",
          "type": "address"
        }
      ],
      "name": "OwnableUnauthorizedAccount",
      "type": "error"
    },
    {
      "anonymous": false,
      "inputs": [
        {
          "indexed": true,
          "internalType": "address",
          "name": "owner",
          "type": "address"
        },
        {
          "indexed": true,
          "internalType": "address",
          "name": "approved",
          "type": "address"
        },
        {
          "indexed": true,
          "internalType": "uint256",
          "name": "tokenId",
          "type": "uint256"
        }
      ],
      "name": "Approval",
      "type": "event"
    },
    {
      "anonymous": false,
      "inputs": [
        {
          "indexed": true,
          "internalType": "address",
          "name": "owner",
          "type": "address"
        },
        {
          "indexed": true,
          "internalType": "address",
          "name": "operator",
          "type": "address"
        },
        {
          "indexed": false,
          "internalType": "bool",
          "name": "approved",
          "type": "bool"
        }
      ],
      "name": "ApprovalForAll",
      "type": "event"
    },
    {
      "anonymous": false,
      "inputs": [
        {
          "indexed": false,
          "internalType": "uint256",
          "name": "cardId",
          "type": "uint256"
        },
        {
          "indexed": false,
          "internalType": "address",
          "name": "buyer",
          "type": "address"
        },
        {
          "indexed": false,
          "internalType": "uint256",
          "name": "totalSupplied",
          "type": "uint256"
        }
      ],
      "name": "CardBought",
      "type": "event"
    },
    {
      "anonymous": false,
      "inputs": [
        {
          "indexed": false,
          "internalType": "uint256",
          "name": "cardId",
          "type": "uint256"
        },
        {
          "indexed": false,
          "internalType": "string",
          "name": "name",
          "type": "string"
        },
        {
          "indexed": false,
          "internalType": "uint256",
          "name": "price",
          "type": "uint256"
        },
        {
          "indexed": false,
          "internalType": "uint256",
          "name": "maxSupply",
          "type": "uint256"
        },
        {
          "indexed": false,
          "internalType": "uint256",
          "name": "discountRate",
          "type": "uint256"
        }
      ],
      "name": "CardCreated",
      "type": "event"
    },
    {
      "anonymous": false,
      "inputs": [
        {
          "indexed": true,
          "internalType": "address",
          "name": "previousOwner",
          "type": "address"
        },
        {
          "indexed": true,
          "internalType": "address",
          "name": "newOwner",
          "type": "address"
        }
      ],
      "name": "OwnershipTransferred",
      "type": "event"
    },
    {
      "anonymous": false,
      "inputs": [
        {
          "indexed": true,
          "internalType": "address",
          "name": "from",
          "type": "address"
        },
        {
          "indexed": true,
          "internalType": "address",
          "name": "to",
          "type": "address"
        },
        {
          "indexed": true,
          "internalType": "uint256",
          "name": "tokenId",
          "type": "uint256"
        }
      ],
      "name": "Transfer",
      "type": "event"
    },
    {
      "inputs": [
        {
          "internalType": "address",
          "name": "to",
          "type": "address"
        },
        {
          "internalType": "uint256",
          "name": "tokenId",
          "type": "uint256"
        }
      ],
      "name": "approve",
      "outputs": [],
      "stateMutability": "nonpayable",
      "type": "function"
    },
    {
      "inputs": [
        {
          "internalType": "address",
          "name": "owner",
          "type": "address"
        }
      ],
      "name": "balanceOf",
      "outputs": [
        {
          "internalType": "uint256",
          "name": "",
          "type": "uint256"
        }
      ],
      "stateMutability": "view",
      "type": "function"
    },
    {
      "inputs": [
        {
          "internalType": "uint256",
          "name": "cardId",
          "type": "uint256"
        }
      ],
      "name": "buyCard",
      "outputs": [],
      "stateMutability": "payable",
      "type": "function"
    },
    {
      "inputs": [
        {
          "internalType": "uint256",
          "name": "",
          "type": "uint256"
        },
        {
          "internalType": "address",
          "name": "",
          "type": "address"
        }
      ],
      "name": "cardPurchases",
      "outputs": [
        {
          "internalType": "bool",
          "name": "",
          "type": "bool"
        }
      ],
      "stateMutability": "view",
      "type": "function"
    },
    {
      "inputs": [
        {
          "internalType": "uint256",
          "name": "",
          "type": "uint256"
        }
      ],
      "name": "cards",
      "outputs": [
        {
          "internalType": "uint256",
          "name": "id",
          "type": "uint256"
        },
        {
          "internalType": "uint256",
          "name": "price",
          "type": "uint256"
        },
        {
          "internalType": "string",
          "name": "name",
          "type": "string"
        },
        {
          "internalType": "string",
          "name": "description",
          "type": "string"
        },
        {
          "internalType": "uint256",
          "name": "maxSupply",
          "type": "uint256"
        },
        {
          "internalType": "uint256",
          "name": "discountRate",
          "type": "uint256"
        },
        {
          "internalType": "uint256",
          "name": "totalSupplied",
          "type": "uint256"
        }
      ],
      "stateMutability": "view",
      "type": "function"
    },
    {
      "inputs": [
        {
          "internalType": "string",
          "name": "name",
          "type": "string"
        },
        {
          "internalType": "string",
          "name": "description",
          "type": "string"
        },
        {
          "internalType": "uint256",
          "name": "price",
          "type": "uint256"
        },
        {
          "internalType": "uint256",
          "name": "maxSupply",
          "type": "uint256"
        },
        {
          "internalType": "uint256",
          "name": "discountRate",
          "type": "uint256"
        }
      ],
      "name": "createCard",
      "outputs": [],
      "stateMutability": "nonpayable",
      "type": "function"
    },
    {
      "inputs": [
        {
          "internalType": "uint256",
          "name": "tokenId",
          "type": "uint256"
        }
      ],
      "name": "getApproved",
      "outputs": [
        {
          "internalType": "address",
          "name": "",
          "type": "address"
        }
      ],
      "stateMutability": "view",
      "type": "function"
    },
    {
      "inputs": [
        {
          "internalType": "uint256",
          "name": "tokenId",
          "type": "uint256"
        }
      ],
      "name": "getCardDiscountRate",
      "outputs": [
        {
          "internalType": "uint256",
          "name": "",
          "type": "uint256"
        }
      ],
      "stateMutability": "view",
      "type": "function"
    },
    {
      "inputs": [
        {
          "internalType": "uint256",
          "name": "tokenId",
          "type": "uint256"
        }
      ],
      "name": "getCardType",
      "outputs": [
        {
          "internalType": "uint256",
          "name": "",
          "type": "uint256"
        }
      ],
      "stateMutability": "view",
      "type": "function"
    },
    {
      "inputs": [],
      "name": "getTotalCards",
      "outputs": [
        {
          "internalType": "uint256",
          "name": "",
          "type": "uint256"
        }
      ],
      "stateMutability": "view",
      "type": "function"
    },
    {
      "inputs": [
        {
          "internalType": "address",
          "name": "owner",
          "type": "address"
        },
        {
          "internalType": "address",
          "name": "operator",
          "type": "address"
        }
      ],
      "name": "isApprovedForAll",
      "outputs": [
        {
          "internalType": "bool",
          "name": "",
          "type": "bool"
        }
      ],
      "stateMutability": "view",
      "type": "function"
    },
    {
      "inputs": [],
      "name": "name",
      "outputs": [
        {
          "internalType": "string",
          "name": "",
          "type": "string"
        }
      ],
      "stateMutability": "view",
      "type": "function"
    },
    {
      "inputs": [],
      "name": "nextCardId",
      "outputs": [
        {
          "internalType": "uint256",
          "name": "",
          "type": "uint256"
        }
      ],
      "stateMutability": "view",
      "type": "function"
    },
    {
      "inputs": [],
      "name": "owner",
      "outputs": [
        {
          "internalType": "address",
          "name": "",
          "type": "address"
        }
      ],
      "stateMutability": "view",
      "type": "function"
    },
    {
      "inputs": [
        {
          "internalType": "uint256",
          "name": "tokenId",
          "type": "uint256"
        }
      ],
      "name": "ownerOf",
      "outputs": [
        {
          "internalType": "address",
          "name": "",
          "type": "address"
        }
      ],
      "stateMutability": "view",
      "type": "function"
    },
    {
      "inputs": [],
      "name": "renounceOwnership",
      "outputs": [],
      "stateMutability": "nonpayable",
      "type": "function"
    },
    {
      "inputs": [
        {
          "internalType": "address",
          "name": "from",
          "type": "address"
        },
        {
          "internalType": "address",
          "name": "to",
          "type": "address"
        },
        {
          "internalType": "uint256",
          "name": "tokenId",
          "type": "uint256"
        }
      ],
      "name": "safeTransferFrom",
      "outputs": [],
      "stateMutability": "nonpayable",
      "type": "function"
    },
    {
      "inputs": [
        {
          "internalType": "address",
          "name": "from",
          "type": "address"
        },
        {
          "internalType": "address",
          "name": "to",
          "type": "address"
        },
        {
          "internalType": "uint256",
          "name": "tokenId",
          "type": "uint256"
        },
        {
          "internalType": "bytes",
          "name": "data",
          "type": "bytes"
        }
      ],
      "name": "safeTransferFrom",
      "outputs": [],
      "stateMutability": "nonpayable",
      "type": "function"
    },
    {
      "inputs": [
        {
          "internalType": "address",
          "name": "operator",
          "type": "address"
        },
        {
          "internalType": "bool",
          "name": "approved",
          "type": "bool"
        }
      ],
      "name": "setApprovalForAll",
      "outputs": [],
      "stateMutability": "nonpayable",
      "type": "function"
    },
    {
      "inputs": [
        {
          "internalType": "bytes4",
          "name": "interfaceId",
          "type": "bytes4"
        }
      ],
      "name": "supportsInterface",
      "outputs": [
        {
          "internalType": "bool",
          "name": "",
          "type": "bool"
        }
      ],
      "stateMutability": "view",
      "type": "function"
    },
    {
      "inputs": [],
      "name": "symbol",
      "outputs": [
        {
          "internalType": "string",
          "name": "",
          "type": "string"
        }
      ],
      "stateMutability": "view",
      "type": "function"
    },
    {
      "inputs": [
        {
          "internalType": "uint256",
          "name": "index",
          "type": "uint256"
        }
      ],
      "name": "tokenByIndex",
      "outputs": [
        {
          "internalType": "uint256",
          "name": "",
          "type": "uint256"
        }
      ],
      "stateMutability": "view",
      "type": "function"
    },
    {
      "inputs": [
        {
          "internalType": "address",
          "name": "owner",
          "type": "address"
        },
        {
          "internalType": "uint256",
          "name": "index",
          "type": "uint256"
        }
      ],
      "name": "tokenOfOwnerByIndex",
      "outputs": [
        {
          "internalType": "uint256",
          "name": "",
          "type": "uint256"
        }
      ],
      "stateMutability": "view",
      "type": "function"
    },
    {
      "inputs": [
        {
          "internalType": "uint256",
          "name": "tokenId",
          "type": "uint256"
        }
      ],
      "name": "tokenURI",
      "outputs": [
        {
          "internalType": "string",
          "name": "",
          "type": "string"
        }
      ],
      "stateMutability": "view",
      "type": "function"
    },
    {
      "inputs": [],
      "name": "totalSupply",
      "outputs": [
        {
          "internalType": "uint256",
          "name": "",
          "type": "uint256"
        }
      ],
      "stateMutability": "view",
      "type": "function"
    },
    {
      "inputs": [
        {
          "internalType": "address",
          "name": "from",
          "type": "address"
        },
        {
          "internalType": "address",
          "name": "to",
          "type": "address"
        },
        {
          "internalType": "uint256",
          "name": "tokenId",
          "type": "uint256"
        }
      ],
      "name": "transferFrom",
      "outputs": [],
      "stateMutability": "nonpayable",
      "type": "function"
    },
    {
      "inputs": [
        {
          "internalType": "address",
          "name": "newOwner",
          "type": "address"
        }
      ],
      "name": "transferOwnership",
      "outputs": [],
      "stateMutability": "nonpayable",
      "type": "function"
    }
  ],
  "bytecode": "0x60806040523480156200001157600080fd5b5060405162003f6b38038062003f6b833981810160405281019062000037919062000288565b806040518060400160405280601a81526020017f5375705261696c526f61642050726976696c65676520436172640000000000008152506040518060400160405280600481526020017f53525043000000000000000000000000000000000000000000000000000000008152508160009081620000b5919062000534565b508060019081620000c7919062000534565b505050600073ffffffffffffffffffffffffffffffffffffffff168173ffffffffffffffffffffffffffffffffffffffff16036200013f5760006040517f1e4fbdf70000000000000000000000000000000000000000000000000000000081526004016200013691906200062c565b60405180910390fd5b62000150816200015860201b60201c565b505062000649565b6000600a60009054906101000a900473ffffffffffffffffffffffffffffffffffffffff16905081600a60006101000a81548173ffffffffffffffffffffffffffffffffffffffff021916908373ffffffffffffffffffffffffffffffffffffffff1602179055508173ffffffffffffffffffffffffffffffffffffffff168173ffffffffffffffffffffffffffffffffffffffff167f8be0079c531659141344cd1fd0a4f28419497f9722a3daafe3b4186f6b6457e060405160405180910390a35050565b600080fd5b600073ffffffffffffffffffffffffffffffffffffffff82169050919050565b6000620002508262000223565b9050919050565b620002628162000243565b81146200026e57600080fd5b50565b600081519050620002828162000257565b92915050565b600060208284031215620002a157620002a06200021e565b5b6000620002b18482850162000271565b91505092915050565b600081519050919050565b7f4e487b7100000000000000000000000000000000000000000000000000000000600052604160045260246000fd5b7f4e487b7100000000000000000000000000000000000000000000000000000000600052602260045260246000fd5b600060028204905060018216806200033c57607f821691505b602082108103620003525762000351620002f4565b5b50919050565b60008190508160005260206000209050919050565b60006020601f8301049050919050565b600082821b905092915050565b600060088302620003bc7fffffffffffffffffffffffffffffffffffffffffffffffffffffffffffffffff826200037d565b620003c886836200037d565b95508019841693508086168417925050509392505050565b6000819050919050565b6000819050919050565b6000620004156200040f6200040984620003e0565b620003ea565b620003e0565b9050919050565b6000819050919050565b6200043183620003f4565b6200044962000440826200041c565b8484546200038a565b825550505050565b600090565b6200046062000451565b6200046d81848462000426565b505050565b5b8181101562000495576200048960008262000456565b60018101905062000473565b5050565b601f821115620004e457620004ae8162000358565b620004b9846200036d565b81016020851015620004c9578190505b620004e1620004d8856200036d565b83018262000472565b50505b505050565b600082821c905092915050565b60006200050960001984600802620004e9565b1980831691505092915050565b6000620005248383620004f6565b9150826002028217905092915050565b6200053f82620002ba565b67ffffffffffffffff8111156200055b576200055a620002c5565b5b62000567825462000323565b6200057482828562000499565b600060209050601f831160018114620005ac576000841562000597578287015190505b620005a3858262000516565b86555062000613565b601f198416620005bc8662000358565b60005b82811015620005e657848901518255600182019150602085019450602081019050620005bf565b8683101562000606578489015162000602601f891682620004f6565b8355505b6001600288020188555050505b505050505050565b620006268162000243565b82525050565b60006020820190506200064360008301846200061b565b92915050565b61391280620006596000396000f3fe60806040526004361061019c5760003560e01c8063715018a6116100ec578063b8d2caee1161008a578063c70f5eaa11610064578063c70f5eaa14610618578063c87b56dd14610634578063e985e9c514610671578063f2fde38b146106ae5761019c565b8063b8d2caee14610585578063c1822719146105b0578063c5263e8c146105ed5761019c565b806393ce1b1a116100c657806393ce1b1a146104cb57806395d89b4114610508578063a22cb46514610533578063b88d4fde1461055c5761019c565b8063715018a6146104465780638da5cb5b1461045d5780638dc10768146104885761019c565b80632ec4c8f71161015957806348dccd561161013357806348dccd56146103525780634f6ccce71461038f5780636352211e146103cc57806370a08231146104095761019c565b80632ec4c8f7146102c35780632f745c59146102ec57806342842e0e146103295761019c565b806301ffc9a7146101a157806306fdde03146101de578063081812fc14610209578063095ea7b31461024657806318160ddd1461026f57806323b872dd1461029a575b600080fd5b3480156101ad57600080fd5b506101c860048036038101906101c39190612929565b6106d7565b6040516101d59190612971565b60405180910390f35b3480156101ea57600080fd5b506101f3610751565b6040516102009190612a1c565b60405180910390f35b34801561021557600080fd5b50610230600480360381019061022b9190612a74565b6107e3565b60405161023d9190612ae2565b60405180910390f35b34801561025257600080fd5b5061026d60048036038101906102689190612b29565b6107ff565b005b34801561027b57600080fd5b50610284610815565b6040516102919190612b78565b60405180910390f35b3480156102a657600080fd5b506102c160048036038101906102bc9190612b93565b610822565b005b3480156102cf57600080fd5b506102ea60048036038101906102e59190612d1b565b610924565b005b3480156102f857600080fd5b50610313600480360381019061030e9190612b29565b610a38565b6040516103209190612b78565b60405180910390f35b34801561033557600080fd5b50610350600480360381019061034b9190612b93565b610ae1565b005b34801561035e57600080fd5b5061037960048036038101906103749190612a74565b610b01565b6040516103869190612b78565b60405180910390f35b34801561039b57600080fd5b506103b660048036038101906103b19190612a74565b610b9a565b6040516103c39190612b78565b60405180910390f35b3480156103d857600080fd5b506103f360048036038101906103ee9190612a74565b610c10565b6040516104009190612ae2565b60405180910390f35b34801561041557600080fd5b50610430600480360381019061042b9190612dce565b610c22565b60405161043d9190612b78565b60405180910390f35b34801561045257600080fd5b5061045b610cdc565b005b34801561046957600080fd5b50610472610cf0565b60405161047f9190612ae2565b60405180910390f35b34801561049457600080fd5b506104af60048036038101906104aa9190612a74565b610d1a565b6040516104c29796959493929190612dfb565b60405180910390f35b3480156104d757600080fd5b506104f260048036038101906104ed9190612a74565b610e6c565b6040516104ff9190612b78565b60405180910390f35b34801561051457600080fd5b5061051d610ff2565b60405161052a9190612a1c565b60405180910390f35b34801561053f57600080fd5b5061055a60048036038101906105559190612ea4565b611084565b005b34801561056857600080fd5b50610583600480360381019061057e9190612f85565b61109a565b005b34801561059157600080fd5b5061059a6110b7565b6040516105a79190612b78565b60405180910390f35b3480156105bc57600080fd5b506105d760048036038101906105d29190613008565b6110c1565b6040516105e49190612971565b60405180910390f35b3480156105f957600080fd5b506106026110f0565b60405161060f9190612b78565b60405180910390f35b610632600480360381019061062d9190612a74565b6110f6565b005b34801561064057600080fd5b5061065b60048036038101906106569190612a74565b6113a7565b6040516106689190612a1c565b60405180910390f35b34801561067d57600080fd5b5061069860048036038101906106939190613048565b611410565b6040516106a59190612971565b60405180910390f35b3480156106ba57600080fd5b506106d560048036038101906106d09190612dce565b6114a4565b005b60007f780e9d63000000000000000000000000000000000000000000000000000000007bffffffffffffffffffffffffffffffffffffffffffffffffffffffff1916827bffffffffffffffffffffffffffffffffffffffffffffffffffffffff1916148061074a57506107498261152a565b5b9050919050565b606060008054610760906130b7565b80601f016020809104026020016040519081016040528092919081815260200182805461078c906130b7565b80156107d95780601f106107ae576101008083540402835291602001916107d9565b820191906000526020600020905b8154815290600101906020018083116107bc57829003601f168201915b5050505050905090565b60006107ee8261160c565b506107f882611694565b9050919050565b610811828261080c6116d1565b6116d9565b5050565b6000600880549050905090565b600073ffffffffffffffffffffffffffffffffffffffff168273ffffffffffffffffffffffffffffffffffffffff16036108945760006040517f64a0ae9200000000000000000000000000000000000000000000000000000000815260040161088b9190612ae2565b60405180910390fd5b60006108a883836108a36116d1565b6116eb565b90508373ffffffffffffffffffffffffffffffffffffffff168173ffffffffffffffffffffffffffffffffffffffff161461091e578382826040517f64283d7b000000000000000000000000000000000000000000000000000000008152600401610915939291906130e8565b60405180910390fd5b50505050565b61092c611808565b6040518060e00160405280600d5481526020018481526020018681526020018581526020018381526020018281526020016000815250600b6000600d548152602001908152602001600020600082015181600001556020820151816001015560408201518160020190816109a091906132cb565b5060608201518160030190816109b691906132cb565b506080820151816004015560a0820151816005015560c08201518160060155905050600d60008154809291906109eb906133cc565b91905055507febda877d31be42f925e684e9c5450d119b0ea17ddad096b3278bb4fedd0fb51f600d5486858585604051610a29959493929190613414565b60405180910390a15050505050565b6000610a4383610c22565b8210610a885782826040517fa57d13dc000000000000000000000000000000000000000000000000000000008152600401610a7f92919061346e565b60405180910390fd5b600660008473ffffffffffffffffffffffffffffffffffffffff1673ffffffffffffffffffffffffffffffffffffffff168152602001908152602001600020600083815260200190815260200160002054905092915050565b610afc8383836040518060200160405280600081525061109a565b505050565b600080610b0d83610c10565b9050600073ffffffffffffffffffffffffffffffffffffffff168173ffffffffffffffffffffffffffffffffffffffff1603610b7e576040517f08c379a0000000000000000000000000000000000000000000000000000000008152600401610b75906134e3565b60405180910390fd5b600f600084815260200190815260200160002054915050919050565b6000610ba4610815565b8210610bea576000826040517fa57d13dc000000000000000000000000000000000000000000000000000000008152600401610be192919061346e565b60405180910390fd5b60088281548110610bfe57610bfd613503565b5b90600052602060002001549050919050565b6000610c1b8261160c565b9050919050565b60008073ffffffffffffffffffffffffffffffffffffffff168273ffffffffffffffffffffffffffffffffffffffff1603610c955760006040517f89c62b64000000000000000000000000000000000000000000000000000000008152600401610c8c9190612ae2565b60405180910390fd5b600360008373ffffffffffffffffffffffffffffffffffffffff1673ffffffffffffffffffffffffffffffffffffffff168152602001908152602001600020549050919050565b610ce4611808565b610cee600061188f565b565b6000600a60009054906101000a900473ffffffffffffffffffffffffffffffffffffffff16905090565b600b602052806000526040600020600091509050806000015490806001015490806002018054610d49906130b7565b80601f0160208091040260200160405190810160405280929190818152602001828054610d75906130b7565b8015610dc25780601f10610d9757610100808354040283529160200191610dc2565b820191906000526020600020905b815481529060010190602001808311610da557829003601f168201915b505050505090806003018054610dd7906130b7565b80601f0160208091040260200160405190810160405280929190818152602001828054610e03906130b7565b8015610e505780601f10610e2557610100808354040283529160200191610e50565b820191906000526020600020905b815481529060010190602001808311610e3357829003601f168201915b5050505050908060040154908060050154908060060154905087565b600080600b60008481526020019081526020016000206040518060e00160405290816000820154815260200160018201548152602001600282018054610eb1906130b7565b80601f0160208091040260200160405190810160405280929190818152602001828054610edd906130b7565b8015610f2a5780601f10610eff57610100808354040283529160200191610f2a565b820191906000526020600020905b815481529060010190602001808311610f0d57829003601f168201915b50505050508152602001600382018054610f43906130b7565b80601f0160208091040260200160405190810160405280929190818152602001828054610f6f906130b7565b8015610fbc5780601f10610f9157610100808354040283529160200191610fbc565b820191906000526020600020905b815481529060010190602001808311610f9f57829003601f168201915b50505050508152602001600482015481526020016005820154815260200160068201548152505090508060a00151915050919050565b606060018054611001906130b7565b80601f016020809104026020016040519081016040528092919081815260200182805461102d906130b7565b801561107a5780601f1061104f5761010080835404028352916020019161107a565b820191906000526020600020905b81548152906001019060200180831161105d57829003601f168201915b5050505050905090565b61109661108f6116d1565b8383611955565b5050565b6110a5848484610822565b6110b184848484611ac4565b50505050565b6000600d54905090565b600e6020528160005260406000206020528060005260406000206000915091509054906101000a900460ff1681565b600d5481565b600b60008281526020019081526020016000206001015434101561114f576040517f08c379a00000000000000000000000000000000000000000000000000000000081526004016111469061357e565b60405180910390fd5b600e600082815260200190815260200160002060003373ffffffffffffffffffffffffffffffffffffffff1673ffffffffffffffffffffffffffffffffffffffff16815260200190815260200160002060009054906101000a900460ff16156111ed576040517f08c379a00000000000000000000000000000000000000000000000000000000081526004016111e490613610565b60405180910390fd5b600b600082815260200190815260200160002060040154600b6000838152602001908152602001600020600601541061125b576040517f08c379a00000000000000000000000000000000000000000000000000000000081526004016112529061367c565b60405180910390fd5b60006001611267610815565b611271919061369c565b905061127d3382611c7b565b600c600083815260200190815260200160002060008154809291906112a1906133cc565b9190505550600c600083815260200190815260200160002054600b6000848152602001908152602001600020600601819055506001600e600084815260200190815260200160002060003373ffffffffffffffffffffffffffffffffffffffff1673ffffffffffffffffffffffffffffffffffffffff16815260200190815260200160002060006101000a81548160ff02191690831515021790555081600f6000838152602001908152602001600020819055507fbf4d92ef8429e8f41c7077e3a79df9c2021167c22d3d9331f6587faae78827608233600c60008681526020019081526020016000205460405161139b939291906136d0565b60405180910390a15050565b60606113b28261160c565b5060006113bd611d74565b905060008151116113dd5760405180602001604052806000815250611408565b806113e784611d8b565b6040516020016113f8929190613743565b6040516020818303038152906040525b915050919050565b6000600560008473ffffffffffffffffffffffffffffffffffffffff1673ffffffffffffffffffffffffffffffffffffffff16815260200190815260200160002060008373ffffffffffffffffffffffffffffffffffffffff1673ffffffffffffffffffffffffffffffffffffffff16815260200190815260200160002060009054906101000a900460ff16905092915050565b6114ac611808565b600073ffffffffffffffffffffffffffffffffffffffff168173ffffffffffffffffffffffffffffffffffffffff160361151e5760006040517f1e4fbdf70000000000000000000000000000000000000000000000000000000081526004016115159190612ae2565b60405180910390fd5b6115278161188f565b50565b60007f80ac58cd000000000000000000000000000000000000000000000000000000007bffffffffffffffffffffffffffffffffffffffffffffffffffffffff1916827bffffffffffffffffffffffffffffffffffffffffffffffffffffffff191614806115f557507f5b5e139f000000000000000000000000000000000000000000000000000000007bffffffffffffffffffffffffffffffffffffffffffffffffffffffff1916827bffffffffffffffffffffffffffffffffffffffffffffffffffffffff1916145b80611605575061160482611e59565b5b9050919050565b60008061161883611ec3565b9050600073ffffffffffffffffffffffffffffffffffffffff168173ffffffffffffffffffffffffffffffffffffffff160361168b57826040517f7e2732890000000000000000000000000000000000000000000000000000000081526004016116829190612b78565b60405180910390fd5b80915050919050565b60006004600083815260200190815260200160002060009054906101000a900473ffffffffffffffffffffffffffffffffffffffff169050919050565b600033905090565b6116e68383836001611f00565b505050565b6000806116f98585856120c5565b9050600073ffffffffffffffffffffffffffffffffffffffff168173ffffffffffffffffffffffffffffffffffffffff160361173d57611738846122df565b61177c565b8473ffffffffffffffffffffffffffffffffffffffff168173ffffffffffffffffffffffffffffffffffffffff161461177b5761177a8185612328565b5b5b600073ffffffffffffffffffffffffffffffffffffffff168573ffffffffffffffffffffffffffffffffffffffff16036117be576117b984612489565b6117fd565b8473ffffffffffffffffffffffffffffffffffffffff168173ffffffffffffffffffffffffffffffffffffffff16146117fc576117fb858561255a565b5b5b809150509392505050565b6118106116d1565b73ffffffffffffffffffffffffffffffffffffffff1661182e610cf0565b73ffffffffffffffffffffffffffffffffffffffff161461188d576118516116d1565b6040517f118cdaa70000000000000000000000000000000000000000000000000000000081526004016118849190612ae2565b60405180910390fd5b565b6000600a60009054906101000a900473ffffffffffffffffffffffffffffffffffffffff16905081600a60006101000a81548173ffffffffffffffffffffffffffffffffffffffff021916908373ffffffffffffffffffffffffffffffffffffffff1602179055508173ffffffffffffffffffffffffffffffffffffffff168173ffffffffffffffffffffffffffffffffffffffff167f8be0079c531659141344cd1fd0a4f28419497f9722a3daafe3b4186f6b6457e060405160405180910390a35050565b600073ffffffffffffffffffffffffffffffffffffffff168273ffffffffffffffffffffffffffffffffffffffff16036119c657816040517f5b08ba180000000000000000000000000000000000000000000000000000000081526004016119bd9190612ae2565b60405180910390fd5b80600560008573ffffffffffffffffffffffffffffffffffffffff1673ffffffffffffffffffffffffffffffffffffffff16815260200190815260200160002060008473ffffffffffffffffffffffffffffffffffffffff1673ffffffffffffffffffffffffffffffffffffffff16815260200190815260200160002060006101000a81548160ff0219169083151502179055508173ffffffffffffffffffffffffffffffffffffffff168373ffffffffffffffffffffffffffffffffffffffff167f17307eab39ab6107e8899845ad3d59bd9653f200f220920489ca2b5937696c3183604051611ab79190612971565b60405180910390a3505050565b60008373ffffffffffffffffffffffffffffffffffffffff163b1115611c75578273ffffffffffffffffffffffffffffffffffffffff1663150b7a02611b086116d1565b8685856040518563ffffffff1660e01b8152600401611b2a94939291906137bc565b6020604051808303816000875af1925050508015611b6657506040513d601f19601f82011682018060405250810190611b63919061381d565b60015b611bea573d8060008114611b96576040519150601f19603f3d011682016040523d82523d6000602084013e611b9b565b606091505b506000815103611be257836040517f64a0ae92000000000000000000000000000000000000000000000000000000008152600401611bd99190612ae2565b60405180910390fd5b805181602001fd5b63150b7a0260e01b7bffffffffffffffffffffffffffffffffffffffffffffffffffffffff1916817bffffffffffffffffffffffffffffffffffffffffffffffffffffffff191614611c7357836040517f64a0ae92000000000000000000000000000000000000000000000000000000008152600401611c6a9190612ae2565b60405180910390fd5b505b50505050565b600073ffffffffffffffffffffffffffffffffffffffff168273ffffffffffffffffffffffffffffffffffffffff1603611ced5760006040517f64a0ae92000000000000000000000000000000000000000000000000000000008152600401611ce49190612ae2565b60405180910390fd5b6000611cfb838360006116eb565b9050600073ffffffffffffffffffffffffffffffffffffffff168173ffffffffffffffffffffffffffffffffffffffff1614611d6f5760006040517f73c6ac6e000000000000000000000000000000000000000000000000000000008152600401611d669190612ae2565b60405180910390fd5b505050565b606060405180602001604052806000815250905090565b606060006001611d9a846125e5565b01905060008167ffffffffffffffff811115611db957611db8612bf0565b5b6040519080825280601f01601f191660200182016040528015611deb5781602001600182028036833780820191505090505b509050600082602001820190505b600115611e4e578080600190039150507f3031323334353637383961626364656600000000000000000000000000000000600a86061a8153600a8581611e4257611e4161384a565b5b04945060008503611df9575b819350505050919050565b60007f01ffc9a7000000000000000000000000000000000000000000000000000000007bffffffffffffffffffffffffffffffffffffffffffffffffffffffff1916827bffffffffffffffffffffffffffffffffffffffffffffffffffffffff1916149050919050565b60006002600083815260200190815260200160002060009054906101000a900473ffffffffffffffffffffffffffffffffffffffff169050919050565b8080611f395750600073ffffffffffffffffffffffffffffffffffffffff168273ffffffffffffffffffffffffffffffffffffffff1614155b1561206d576000611f498461160c565b9050600073ffffffffffffffffffffffffffffffffffffffff168373ffffffffffffffffffffffffffffffffffffffff1614158015611fb457508273ffffffffffffffffffffffffffffffffffffffff168173ffffffffffffffffffffffffffffffffffffffff1614155b8015611fc75750611fc58184611410565b155b1561200957826040517fa9fbf51f0000000000000000000000000000000000000000000000000000000081526004016120009190612ae2565b60405180910390fd5b811561206b57838573ffffffffffffffffffffffffffffffffffffffff168273ffffffffffffffffffffffffffffffffffffffff167f8c5be1e5ebec7d5bd14f71427d1e84f3dd0314c0f7b2291e5b200ac8c7c3b92560405160405180910390a45b505b836004600085815260200190815260200160002060006101000a81548173ffffffffffffffffffffffffffffffffffffffff021916908373ffffffffffffffffffffffffffffffffffffffff16021790555050505050565b6000806120d184611ec3565b9050600073ffffffffffffffffffffffffffffffffffffffff168373ffffffffffffffffffffffffffffffffffffffff161461211357612112818486612738565b5b600073ffffffffffffffffffffffffffffffffffffffff168173ffffffffffffffffffffffffffffffffffffffff16146121a457612155600085600080611f00565b6001600360008373ffffffffffffffffffffffffffffffffffffffff1673ffffffffffffffffffffffffffffffffffffffff168152602001908152602001600020600082825403925050819055505b600073ffffffffffffffffffffffffffffffffffffffff168573ffffffffffffffffffffffffffffffffffffffff1614612227576001600360008773ffffffffffffffffffffffffffffffffffffffff1673ffffffffffffffffffffffffffffffffffffffff168152602001908152602001600020600082825401925050819055505b846002600086815260200190815260200160002060006101000a81548173ffffffffffffffffffffffffffffffffffffffff021916908373ffffffffffffffffffffffffffffffffffffffff160217905550838573ffffffffffffffffffffffffffffffffffffffff168273ffffffffffffffffffffffffffffffffffffffff167fddf252ad1be2c89b69c2b068fc378daa952ba7f163c4a11628f55a4df523b3ef60405160405180910390a4809150509392505050565b6008805490506009600083815260200190815260200160002081905550600881908060018154018082558091505060019003906000526020600020016000909190919091505550565b600061233383610c22565b9050600060076000848152602001908152602001600020549050818114612418576000600660008673ffffffffffffffffffffffffffffffffffffffff1673ffffffffffffffffffffffffffffffffffffffff168152602001908152602001600020600084815260200190815260200160002054905080600660008773ffffffffffffffffffffffffffffffffffffffff1673ffffffffffffffffffffffffffffffffffffffff168152602001908152602001600020600084815260200190815260200160002081905550816007600083815260200190815260200160002081905550505b6007600084815260200190815260200160002060009055600660008573ffffffffffffffffffffffffffffffffffffffff1673ffffffffffffffffffffffffffffffffffffffff16815260200190815260200160002060008381526020019081526020016000206000905550505050565b6000600160088054905061249d9190613879565b90506000600960008481526020019081526020016000205490506000600883815481106124cd576124cc613503565b5b9060005260206000200154905080600883815481106124ef576124ee613503565b5b90600052602060002001819055508160096000838152602001908152602001600020819055506009600085815260200190815260200160002060009055600880548061253e5761253d6138ad565b5b6001900381819060005260206000200160009055905550505050565b6000600161256784610c22565b6125719190613879565b905081600660008573ffffffffffffffffffffffffffffffffffffffff1673ffffffffffffffffffffffffffffffffffffffff168152602001908152602001600020600083815260200190815260200160002081905550806007600084815260200190815260200160002081905550505050565b600080600090507a184f03e93ff9f4daa797ed6e38ed64bf6a1f0100000000000000008310612643577a184f03e93ff9f4daa797ed6e38ed64bf6a1f01000000000000000083816126395761263861384a565b5b0492506040810190505b6d04ee2d6d415b85acef81000000008310612680576d04ee2d6d415b85acef810000000083816126765761267561384a565b5b0492506020810190505b662386f26fc1000083106126af57662386f26fc1000083816126a5576126a461384a565b5b0492506010810190505b6305f5e10083106126d8576305f5e10083816126ce576126cd61384a565b5b0492506008810190505b61271083106126fd5761271083816126f3576126f261384a565b5b0492506004810190505b6064831061272057606483816127165761271561384a565b5b0492506002810190505b600a831061272f576001810190505b80915050919050565b6127438383836127fc565b6127f757600073ffffffffffffffffffffffffffffffffffffffff168373ffffffffffffffffffffffffffffffffffffffff16036127b857806040517f7e2732890000000000000000000000000000000000000000000000000000000081526004016127af9190612b78565b60405180910390fd5b81816040517f177e802f0000000000000000000000000000000000000000000000000000000081526004016127ee92919061346e565b60405180910390fd5b505050565b60008073ffffffffffffffffffffffffffffffffffffffff168373ffffffffffffffffffffffffffffffffffffffff16141580156128b457508273ffffffffffffffffffffffffffffffffffffffff168473ffffffffffffffffffffffffffffffffffffffff16148061287557506128748484611410565b5b806128b357508273ffffffffffffffffffffffffffffffffffffffff1661289b83611694565b73ffffffffffffffffffffffffffffffffffffffff16145b5b90509392505050565b6000604051905090565b600080fd5b600080fd5b60007fffffffff0000000000000000000000000000000000000000000000000000000082169050919050565b612906816128d1565b811461291157600080fd5b50565b600081359050612923816128fd565b92915050565b60006020828403121561293f5761293e6128c7565b5b600061294d84828501612914565b91505092915050565b60008115159050919050565b61296b81612956565b82525050565b60006020820190506129866000830184612962565b92915050565b600081519050919050565b600082825260208201905092915050565b60005b838110156129c65780820151818401526020810190506129ab565b60008484015250505050565b6000601f19601f8301169050919050565b60006129ee8261298c565b6129f88185612997565b9350612a088185602086016129a8565b612a11816129d2565b840191505092915050565b60006020820190508181036000830152612a3681846129e3565b905092915050565b6000819050919050565b612a5181612a3e565b8114612a5c57600080fd5b50565b600081359050612a6e81612a48565b92915050565b600060208284031215612a8a57612a896128c7565b5b6000612a9884828501612a5f565b91505092915050565b600073ffffffffffffffffffffffffffffffffffffffff82169050919050565b6000612acc82612aa1565b9050919050565b612adc81612ac1565b82525050565b6000602082019050612af76000830184612ad3565b92915050565b612b0681612ac1565b8114612b1157600080fd5b50565b600081359050612b2381612afd565b92915050565b60008060408385031215612b4057612b3f6128c7565b5b6000612b4e85828601612b14565b9250506020612b5f85828601612a5f565b9150509250929050565b612b7281612a3e565b82525050565b6000602082019050612b8d6000830184612b69565b92915050565b600080600060608486031215612bac57612bab6128c7565b5b6000612bba86828701612b14565b9350506020612bcb86828701612b14565b9250506040612bdc86828701612a5f565b9150509250925092565b600080fd5b600080fd5b7f4e487b7100000000000000000000000000000000000000000000000000000000600052604160045260246000fd5b612c28826129d2565b810181811067ffffffffffffffff82111715612c4757612c46612bf0565b5b80604052505050565b6000612c5a6128bd565b9050612c668282612c1f565b919050565b600067ffffffffffffffff821115612c8657612c85612bf0565b5b612c8f826129d2565b9050602081019050919050565b82818337600083830152505050565b6000612cbe612cb984612c6b565b612c50565b905082815260208101848484011115612cda57612cd9612beb565b5b612ce5848285612c9c565b509392505050565b600082601f830112612d0257612d01612be6565b5b8135612d12848260208601612cab565b91505092915050565b600080600080600060a08688031215612d3757612d366128c7565b5b600086013567ffffffffffffffff811115612d5557612d546128cc565b5b612d6188828901612ced565b955050602086013567ffffffffffffffff811115612d8257612d816128cc565b5b612d8e88828901612ced565b9450506040612d9f88828901612a5f565b9350506060612db088828901612a5f565b9250506080612dc188828901612a5f565b9150509295509295909350565b600060208284031215612de457612de36128c7565b5b6000612df284828501612b14565b91505092915050565b600060e082019050612e10600083018a612b69565b612e1d6020830189612b69565b8181036040830152612e2f81886129e3565b90508181036060830152612e4381876129e3565b9050612e526080830186612b69565b612e5f60a0830185612b69565b612e6c60c0830184612b69565b98975050505050505050565b612e8181612956565b8114612e8c57600080fd5b50565b600081359050612e9e81612e78565b92915050565b60008060408385031215612ebb57612eba6128c7565b5b6000612ec985828601612b14565b9250506020612eda85828601612e8f565b9150509250929050565b600067ffffffffffffffff821115612eff57612efe612bf0565b5b612f08826129d2565b9050602081019050919050565b6000612f28612f2384612ee4565b612c50565b905082815260208101848484011115612f4457612f43612beb565b5b612f4f848285612c9c565b509392505050565b600082601f830112612f6c57612f6b612be6565b5b8135612f7c848260208601612f15565b91505092915050565b60008060008060808587031215612f9f57612f9e6128c7565b5b6000612fad87828801612b14565b9450506020612fbe87828801612b14565b9350506040612fcf87828801612a5f565b925050606085013567ffffffffffffffff811115612ff057612fef6128cc565b5b612ffc87828801612f57565b91505092959194509250565b6000806040838503121561301f5761301e6128c7565b5b600061302d85828601612a5f565b925050602061303e85828601612b14565b9150509250929050565b6000806040838503121561305f5761305e6128c7565b5b600061306d85828601612b14565b925050602061307e85828601612b14565b9150509250929050565b7f4e487b7100000000000000000000000000000000000000000000000000000000600052602260045260246000fd5b600060028204905060018216806130cf57607f821691505b6020821081036130e2576130e1613088565b5b50919050565b60006060820190506130fd6000830186612ad3565b61310a6020830185612b69565b6131176040830184612ad3565b949350505050565b60008190508160005260206000209050919050565b60006020601f8301049050919050565b600082821b905092915050565b6000600883026131817fffffffffffffffffffffffffffffffffffffffffffffffffffffffffffffffff82613144565b61318b8683613144565b95508019841693508086168417925050509392505050565b6000819050919050565b60006131c86131c36131be84612a3e565b6131a3565b612a3e565b9050919050565b6000819050919050565b6131e2836131ad565b6131f66131ee826131cf565b848454613151565b825550505050565b600090565b61320b6131fe565b6132168184846131d9565b505050565b5b8181101561323a5761322f600082613203565b60018101905061321c565b5050565b601f82111561327f576132508161311f565b61325984613134565b81016020851015613268578190505b61327c61327485613134565b83018261321b565b50505b505050565b600082821c905092915050565b60006132a260001984600802613284565b1980831691505092915050565b60006132bb8383613291565b9150826002028217905092915050565b6132d48261298c565b67ffffffffffffffff8111156132ed576132ec612bf0565b5b6132f782546130b7565b61330282828561323e565b600060209050601f8311600181146133355760008415613323578287015190505b61332d85826132af565b865550613395565b601f1984166133438661311f565b60005b8281101561336b57848901518255600182019150602085019450602081019050613346565b868310156133885784890151613384601f891682613291565b8355505b6001600288020188555050505b505050505050565b7f4e487b7100000000000000000000000000000000000000000000000000000000600052601160045260246000fd5b60006133d782612a3e565b91507fffffffffffffffffffffffffffffffffffffffffffffffffffffffffffffffff82036134095761340861339d565b5b600182019050919050565b600060a0820190506134296000830188612b69565b818103602083015261343b81876129e3565b905061344a6040830186612b69565b6134576060830185612b69565b6134646080830184612b69565b9695505050505050565b60006040820190506134836000830185612ad3565b6134906020830184612b69565b9392505050565b7f546f6b656e20646f6573206e6f742065786973742e0000000000000000000000600082015250565b60006134cd601583612997565b91506134d882613497565b602082019050919050565b600060208201905081810360008301526134fc816134c0565b9050919050565b7f4e487b7100000000000000000000000000000000000000000000000000000000600052603260045260246000fd5b7f496e73756666696369656e742066756e64730000000000000000000000000000600082015250565b6000613568601283612997565b915061357382613532565b602082019050919050565b600060208201905081810360008301526135978161355b565b9050919050565b7f4361726420616c726561647920626f756768742062792074686973206163636f60008201527f756e740000000000000000000000000000000000000000000000000000000000602082015250565b60006135fa602383612997565b91506136058261359e565b604082019050919050565b60006020820190508181036000830152613629816135ed565b9050919050565b7f4d617820737570706c7920726561636865640000000000000000000000000000600082015250565b6000613666601283612997565b915061367182613630565b602082019050919050565b6000602082019050818103600083015261369581613659565b9050919050565b60006136a782612a3e565b91506136b283612a3e565b92508282019050808211156136ca576136c961339d565b5b92915050565b60006060820190506136e56000830186612b69565b6136f26020830185612ad3565b6136ff6040830184612b69565b949350505050565b600081905092915050565b600061371d8261298c565b6137278185613707565b93506137378185602086016129a8565b80840191505092915050565b600061374f8285613712565b915061375b8284613712565b91508190509392505050565b600081519050919050565b600082825260208201905092915050565b600061378e82613767565b6137988185613772565b93506137a88185602086016129a8565b6137b1816129d2565b840191505092915050565b60006080820190506137d16000830187612ad3565b6137de6020830186612ad3565b6137eb6040830185612b69565b81810360608301526137fd8184613783565b905095945050505050565b600081519050613817816128fd565b92915050565b600060208284031215613833576138326128c7565b5b600061384184828501613808565b91505092915050565b7f4e487b7100000000000000000000000000000000000000000000000000000000600052601260045260246000fd5b600061388482612a3e565b915061388f83612a3e565b92508282039050818111156138a7576138a661339d565b5b92915050565b7f4e487b7100000000000000000000000000000000000000000000000000000000600052603160045260246000fdfea26469706673582212202e91b18f6db4a46ec06eeeb98ef84747bae0861579c7bcba84ffb7f0bef32f4e64736f6c63430008180033",
  "linkReferences": {},
  "deployedLinkReferences": {}
}