{
  "_format": "hh-sol-artifact-1",
  "contractName": "PrivilegeCard",
  "sourceName": "contracts/PrivilegeCard.sol",
  "abi": [
    {
      "inputs": [
        {
          "internalType": "address",
          "name": "initialOwner",
          "type": "address"
        }
      ],
      "stateMutability": "nonpayable",
      "type": "constructor"
    },
    {
      "inputs": [],
      "name": "ERC721EnumerableForbiddenBatchMint",
      "type": "error"
    },
    {
      "inputs": [
        {
          "internalType": "address",
          "name": "sender",
          "type": "address"
        },
        {
          "internalType": "uint256",
          "name": "tokenId",
          "type": "uint256"
        },
        {
          "internalType": "address",
          "name": "owner",
          "type": "address"
        }
      ],
      "name": "ERC721IncorrectOwner",
      "type": "error"
    },
    {
      "inputs": [
        {
          "internalType": "address",
          "name": "operator",
          "type": "address"
        },
        {
          "internalType": "uint256",
          "name": "tokenId",
          "type": "uint256"
        }
      ],
      "name": "ERC721InsufficientApproval",
      "type": "error"
    },
    {
      "inputs": [
        {
          "internalType": "address",
          "name": "approver",
          "type": "address"
        }
      ],
      "name": "ERC721InvalidApprover",
      "type": "error"
    },
    {
      "inputs": [
        {
          "internalType": "address",
          "name": "operator",
          "type": "address"
        }
      ],
      "name": "ERC721InvalidOperator",
      "type": "error"
    },
    {
      "inputs": [
        {
          "internalType": "address",
          "name": "owner",
          "type": "address"
        }
      ],
      "name": "ERC721InvalidOwner",
      "type": "error"
    },
    {
      "inputs": [
        {
          "internalType": "address",
          "name": "receiver",
          "type": "address"
        }
      ],
      "name": "ERC721InvalidReceiver",
      "type": "error"
    },
    {
      "inputs": [
        {
          "internalType": "address",
          "name": "sender",
          "type": "address"
        }
      ],
      "name": "ERC721InvalidSender",
      "type": "error"
    },
    {
      "inputs": [
        {
          "internalType": "uint256",
          "name": "tokenId",
          "type": "uint256"
        }
      ],
      "name": "ERC721NonexistentToken",
      "type": "error"
    },
    {
      "inputs": [
        {
          "internalType": "address",
          "name": "owner",
          "type": "address"
        },
        {
          "internalType": "uint256",
          "name": "index",
          "type": "uint256"
        }
      ],
      "name": "ERC721OutOfBoundsIndex",
      "type": "error"
    },
    {
      "inputs": [
        {
          "internalType": "address",
          "name": "owner",
          "type": "address"
        }
      ],
      "name": "OwnableInvalidOwner",
      "type": "error"
    },
    {
      "inputs": [
        {
          "internalType": "address",
          "name": "account",
          "type": "address"
        }
      ],
      "name": "OwnableUnauthorizedAccount",
      "type": "error"
    },
    {
      "anonymous": false,
      "inputs": [
        {
          "indexed": true,
          "internalType": "address",
          "name": "owner",
          "type": "address"
        },
        {
          "indexed": true,
          "internalType": "address",
          "name": "approved",
          "type": "address"
        },
        {
          "indexed": true,
          "internalType": "uint256",
          "name": "tokenId",
          "type": "uint256"
        }
      ],
      "name": "Approval",
      "type": "event"
    },
    {
      "anonymous": false,
      "inputs": [
        {
          "indexed": true,
          "internalType": "address",
          "name": "owner",
          "type": "address"
        },
        {
          "indexed": true,
          "internalType": "address",
          "name": "operator",
          "type": "address"
        },
        {
          "indexed": false,
          "internalType": "bool",
          "name": "approved",
          "type": "bool"
        }
      ],
      "name": "ApprovalForAll",
      "type": "event"
    },
    {
      "anonymous": false,
      "inputs": [
        {
          "indexed": false,
          "internalType": "uint256",
          "name": "cardId",
          "type": "uint256"
        },
        {
          "indexed": false,
          "internalType": "address",
          "name": "buyer",
          "type": "address"
        },
        {
          "indexed": false,
          "internalType": "uint256",
          "name": "totalSupplied",
          "type": "uint256"
        }
      ],
      "name": "CardBought",
      "type": "event"
    },
    {
      "anonymous": false,
      "inputs": [
        {
          "indexed": false,
          "internalType": "uint256",
          "name": "cardId",
          "type": "uint256"
        },
        {
          "indexed": false,
          "internalType": "string",
          "name": "name",
          "type": "string"
        },
        {
          "indexed": false,
          "internalType": "uint256",
          "name": "price",
          "type": "uint256"
        },
        {
          "indexed": false,
          "internalType": "uint256",
          "name": "maxSupply",
          "type": "uint256"
        },
        {
          "indexed": false,
          "internalType": "uint256",
          "name": "discountRate",
          "type": "uint256"
        }
      ],
      "name": "CardCreated",
      "type": "event"
    },
    {
      "anonymous": false,
      "inputs": [
        {
          "indexed": true,
          "internalType": "address",
          "name": "previousOwner",
          "type": "address"
        },
        {
          "indexed": true,
          "internalType": "address",
          "name": "newOwner",
          "type": "address"
        }
      ],
      "name": "OwnershipTransferred",
      "type": "event"
    },
    {
      "anonymous": false,
      "inputs": [
        {
          "indexed": true,
          "internalType": "address",
          "name": "from",
          "type": "address"
        },
        {
          "indexed": true,
          "internalType": "address",
          "name": "to",
          "type": "address"
        },
        {
          "indexed": true,
          "internalType": "uint256",
          "name": "tokenId",
          "type": "uint256"
        }
      ],
      "name": "Transfer",
      "type": "event"
    },
    {
      "inputs": [
        {
          "internalType": "address",
          "name": "to",
          "type": "address"
        },
        {
          "internalType": "uint256",
          "name": "tokenId",
          "type": "uint256"
        }
      ],
      "name": "approve",
      "outputs": [],
      "stateMutability": "nonpayable",
      "type": "function"
    },
    {
      "inputs": [
        {
          "internalType": "address",
          "name": "owner",
          "type": "address"
        }
      ],
      "name": "balanceOf",
      "outputs": [
        {
          "internalType": "uint256",
          "name": "",
          "type": "uint256"
        }
      ],
      "stateMutability": "view",
      "type": "function"
    },
    {
      "inputs": [
        {
          "internalType": "uint256",
          "name": "cardId",
          "type": "uint256"
        }
      ],
      "name": "buyCard",
      "outputs": [],
      "stateMutability": "payable",
      "type": "function"
    },
    {
      "inputs": [
        {
          "internalType": "uint256",
          "name": "",
          "type": "uint256"
        },
        {
          "internalType": "address",
          "name": "",
          "type": "address"
        }
      ],
      "name": "cardPurchases",
      "outputs": [
        {
          "internalType": "bool",
          "name": "",
          "type": "bool"
        }
      ],
      "stateMutability": "view",
      "type": "function"
    },
    {
      "inputs": [
        {
          "internalType": "uint256",
          "name": "",
          "type": "uint256"
        }
      ],
      "name": "cards",
      "outputs": [
        {
          "internalType": "uint256",
          "name": "id",
          "type": "uint256"
        },
        {
          "internalType": "uint256",
          "name": "price",
          "type": "uint256"
        },
        {
          "internalType": "string",
          "name": "name",
          "type": "string"
        },
        {
          "internalType": "string",
          "name": "description",
          "type": "string"
        },
        {
          "internalType": "string",
          "name": "imageURL",
          "type": "string"
        },
        {
          "internalType": "uint256",
          "name": "maxSupply",
          "type": "uint256"
        },
        {
          "internalType": "uint256",
          "name": "discountRate",
          "type": "uint256"
        },
        {
          "internalType": "uint256",
          "name": "totalSupplied",
          "type": "uint256"
        }
      ],
      "stateMutability": "view",
      "type": "function"
    },
    {
      "inputs": [
        {
          "internalType": "string",
          "name": "name",
          "type": "string"
        },
        {
          "internalType": "string",
          "name": "description",
          "type": "string"
        },
        {
          "internalType": "string",
          "name": "imageURL",
          "type": "string"
        },
        {
          "internalType": "uint256",
          "name": "price",
          "type": "uint256"
        },
        {
          "internalType": "uint256",
          "name": "maxSupply",
          "type": "uint256"
        },
        {
          "internalType": "uint256",
          "name": "discountRate",
          "type": "uint256"
        }
      ],
      "name": "createCard",
      "outputs": [],
      "stateMutability": "nonpayable",
      "type": "function"
    },
    {
      "inputs": [
        {
          "internalType": "uint256",
          "name": "tokenId",
          "type": "uint256"
        }
      ],
      "name": "getApproved",
      "outputs": [
        {
          "internalType": "address",
          "name": "",
          "type": "address"
        }
      ],
      "stateMutability": "view",
      "type": "function"
    },
    {
      "inputs": [
        {
          "internalType": "uint256",
          "name": "tokenId",
          "type": "uint256"
        }
      ],
      "name": "getCardDiscountRate",
      "outputs": [
        {
          "internalType": "uint256",
          "name": "",
          "type": "uint256"
        }
      ],
      "stateMutability": "view",
      "type": "function"
    },
    {
      "inputs": [
        {
          "internalType": "uint256",
          "name": "tokenId",
          "type": "uint256"
        }
      ],
      "name": "getCardType",
      "outputs": [
        {
          "internalType": "uint256",
          "name": "",
          "type": "uint256"
        }
      ],
      "stateMutability": "view",
      "type": "function"
    },
    {
      "inputs": [],
      "name": "getTotalCards",
      "outputs": [
        {
          "internalType": "uint256",
          "name": "",
          "type": "uint256"
        }
      ],
      "stateMutability": "view",
      "type": "function"
    },
    {
      "inputs": [
        {
          "internalType": "address",
          "name": "owner",
          "type": "address"
        },
        {
          "internalType": "address",
          "name": "operator",
          "type": "address"
        }
      ],
      "name": "isApprovedForAll",
      "outputs": [
        {
          "internalType": "bool",
          "name": "",
          "type": "bool"
        }
      ],
      "stateMutability": "view",
      "type": "function"
    },
    {
      "inputs": [],
      "name": "name",
      "outputs": [
        {
          "internalType": "string",
          "name": "",
          "type": "string"
        }
      ],
      "stateMutability": "view",
      "type": "function"
    },
    {
      "inputs": [],
      "name": "nextCardId",
      "outputs": [
        {
          "internalType": "uint256",
          "name": "",
          "type": "uint256"
        }
      ],
      "stateMutability": "view",
      "type": "function"
    },
    {
      "inputs": [],
      "name": "owner",
      "outputs": [
        {
          "internalType": "address",
          "name": "",
          "type": "address"
        }
      ],
      "stateMutability": "view",
      "type": "function"
    },
    {
      "inputs": [
        {
          "internalType": "uint256",
          "name": "tokenId",
          "type": "uint256"
        }
      ],
      "name": "ownerOf",
      "outputs": [
        {
          "internalType": "address",
          "name": "",
          "type": "address"
        }
      ],
      "stateMutability": "view",
      "type": "function"
    },
    {
      "inputs": [],
      "name": "renounceOwnership",
      "outputs": [],
      "stateMutability": "nonpayable",
      "type": "function"
    },
    {
      "inputs": [
        {
          "internalType": "address",
          "name": "from",
          "type": "address"
        },
        {
          "internalType": "address",
          "name": "to",
          "type": "address"
        },
        {
          "internalType": "uint256",
          "name": "tokenId",
          "type": "uint256"
        }
      ],
      "name": "safeTransferFrom",
      "outputs": [],
      "stateMutability": "nonpayable",
      "type": "function"
    },
    {
      "inputs": [
        {
          "internalType": "address",
          "name": "from",
          "type": "address"
        },
        {
          "internalType": "address",
          "name": "to",
          "type": "address"
        },
        {
          "internalType": "uint256",
          "name": "tokenId",
          "type": "uint256"
        },
        {
          "internalType": "bytes",
          "name": "data",
          "type": "bytes"
        }
      ],
      "name": "safeTransferFrom",
      "outputs": [],
      "stateMutability": "nonpayable",
      "type": "function"
    },
    {
      "inputs": [
        {
          "internalType": "address",
          "name": "operator",
          "type": "address"
        },
        {
          "internalType": "bool",
          "name": "approved",
          "type": "bool"
        }
      ],
      "name": "setApprovalForAll",
      "outputs": [],
      "stateMutability": "nonpayable",
      "type": "function"
    },
    {
      "inputs": [
        {
          "internalType": "bytes4",
          "name": "interfaceId",
          "type": "bytes4"
        }
      ],
      "name": "supportsInterface",
      "outputs": [
        {
          "internalType": "bool",
          "name": "",
          "type": "bool"
        }
      ],
      "stateMutability": "view",
      "type": "function"
    },
    {
      "inputs": [],
      "name": "symbol",
      "outputs": [
        {
          "internalType": "string",
          "name": "",
          "type": "string"
        }
      ],
      "stateMutability": "view",
      "type": "function"
    },
    {
      "inputs": [
        {
          "internalType": "uint256",
          "name": "index",
          "type": "uint256"
        }
      ],
      "name": "tokenByIndex",
      "outputs": [
        {
          "internalType": "uint256",
          "name": "",
          "type": "uint256"
        }
      ],
      "stateMutability": "view",
      "type": "function"
    },
    {
      "inputs": [
        {
          "internalType": "address",
          "name": "owner",
          "type": "address"
        },
        {
          "internalType": "uint256",
          "name": "index",
          "type": "uint256"
        }
      ],
      "name": "tokenOfOwnerByIndex",
      "outputs": [
        {
          "internalType": "uint256",
          "name": "",
          "type": "uint256"
        }
      ],
      "stateMutability": "view",
      "type": "function"
    },
    {
      "inputs": [
        {
          "internalType": "uint256",
          "name": "tokenId",
          "type": "uint256"
        }
      ],
      "name": "tokenURI",
      "outputs": [
        {
          "internalType": "string",
          "name": "",
          "type": "string"
        }
      ],
      "stateMutability": "view",
      "type": "function"
    },
    {
      "inputs": [],
      "name": "totalSupply",
      "outputs": [
        {
          "internalType": "uint256",
          "name": "",
          "type": "uint256"
        }
      ],
      "stateMutability": "view",
      "type": "function"
    },
    {
      "inputs": [
        {
          "internalType": "address",
          "name": "from",
          "type": "address"
        },
        {
          "internalType": "address",
          "name": "to",
          "type": "address"
        },
        {
          "internalType": "uint256",
          "name": "tokenId",
          "type": "uint256"
        }
      ],
      "name": "transferFrom",
      "outputs": [],
      "stateMutability": "nonpayable",
      "type": "function"
    },
    {
      "inputs": [
        {
          "internalType": "address",
          "name": "newOwner",
          "type": "address"
        }
      ],
      "name": "transferOwnership",
      "outputs": [],
      "stateMutability": "nonpayable",
      "type": "function"
    }
  ],
  "bytecode": "0x60806040523480156200001157600080fd5b50604051620040ef380380620040ef833981810160405281019062000037919062000288565b806040518060400160405280601a81526020017f5375705261696c526f61642050726976696c65676520436172640000000000008152506040518060400160405280600481526020017f53525043000000000000000000000000000000000000000000000000000000008152508160009081620000b5919062000534565b508060019081620000c7919062000534565b505050600073ffffffffffffffffffffffffffffffffffffffff168173ffffffffffffffffffffffffffffffffffffffff16036200013f5760006040517f1e4fbdf70000000000000000000000000000000000000000000000000000000081526004016200013691906200062c565b60405180910390fd5b62000150816200015860201b60201c565b505062000649565b6000600a60009054906101000a900473ffffffffffffffffffffffffffffffffffffffff16905081600a60006101000a81548173ffffffffffffffffffffffffffffffffffffffff021916908373ffffffffffffffffffffffffffffffffffffffff1602179055508173ffffffffffffffffffffffffffffffffffffffff168173ffffffffffffffffffffffffffffffffffffffff167f8be0079c531659141344cd1fd0a4f28419497f9722a3daafe3b4186f6b6457e060405160405180910390a35050565b600080fd5b600073ffffffffffffffffffffffffffffffffffffffff82169050919050565b6000620002508262000223565b9050919050565b620002628162000243565b81146200026e57600080fd5b50565b600081519050620002828162000257565b92915050565b600060208284031215620002a157620002a06200021e565b5b6000620002b18482850162000271565b91505092915050565b600081519050919050565b7f4e487b7100000000000000000000000000000000000000000000000000000000600052604160045260246000fd5b7f4e487b7100000000000000000000000000000000000000000000000000000000600052602260045260246000fd5b600060028204905060018216806200033c57607f821691505b602082108103620003525762000351620002f4565b5b50919050565b60008190508160005260206000209050919050565b60006020601f8301049050919050565b600082821b905092915050565b600060088302620003bc7fffffffffffffffffffffffffffffffffffffffffffffffffffffffffffffffff826200037d565b620003c886836200037d565b95508019841693508086168417925050509392505050565b6000819050919050565b6000819050919050565b6000620004156200040f6200040984620003e0565b620003ea565b620003e0565b9050919050565b6000819050919050565b6200043183620003f4565b6200044962000440826200041c565b8484546200038a565b825550505050565b600090565b6200046062000451565b6200046d81848462000426565b505050565b5b8181101562000495576200048960008262000456565b60018101905062000473565b5050565b601f821115620004e457620004ae8162000358565b620004b9846200036d565b81016020851015620004c9578190505b620004e1620004d8856200036d565b83018262000472565b50505b505050565b600082821c905092915050565b60006200050960001984600802620004e9565b1980831691505092915050565b6000620005248383620004f6565b9150826002028217905092915050565b6200053f82620002ba565b67ffffffffffffffff8111156200055b576200055a620002c5565b5b62000567825462000323565b6200057482828562000499565b600060209050601f831160018114620005ac576000841562000597578287015190505b620005a3858262000516565b86555062000613565b601f198416620005bc8662000358565b60005b82811015620005e657848901518255600182019150602085019450602081019050620005bf565b8683101562000606578489015162000602601f891682620004f6565b8355505b6001600288020188555050505b505050505050565b620006268162000243565b82525050565b60006020820190506200064360008301846200061b565b92915050565b613a9680620006596000396000f3fe60806040526004361061019c5760003560e01c80638da5cb5b116100ec578063b8d2caee1161008a578063c70f5eaa11610064578063c70f5eaa14610619578063c87b56dd14610635578063e985e9c514610672578063f2fde38b146106af5761019c565b8063b8d2caee14610586578063c1822719146105b1578063c5263e8c146105ee5761019c565b806395d89b41116100c657806395d89b41146104e05780639d3069eb1461050b578063a22cb46514610534578063b88d4fde1461055d5761019c565b80638da5cb5b146104345780638dc107681461045f57806393ce1b1a146104a35761019c565b80632f745c59116101595780634f6ccce7116101335780634f6ccce7146103665780636352211e146103a357806370a08231146103e0578063715018a61461041d5761019c565b80632f745c59146102c357806342842e0e1461030057806348dccd56146103295761019c565b806301ffc9a7146101a157806306fdde03146101de578063081812fc14610209578063095ea7b31461024657806318160ddd1461026f57806323b872dd1461029a575b600080fd5b3480156101ad57600080fd5b506101c860048036038101906101c39190612a69565b6106d8565b6040516101d59190612ab1565b60405180910390f35b3480156101ea57600080fd5b506101f3610752565b6040516102009190612b5c565b60405180910390f35b34801561021557600080fd5b50610230600480360381019061022b9190612bb4565b6107e4565b60405161023d9190612c22565b60405180910390f35b34801561025257600080fd5b5061026d60048036038101906102689190612c69565b610800565b005b34801561027b57600080fd5b50610284610816565b6040516102919190612cb8565b60405180910390f35b3480156102a657600080fd5b506102c160048036038101906102bc9190612cd3565b610823565b005b3480156102cf57600080fd5b506102ea60048036038101906102e59190612c69565b610925565b6040516102f79190612cb8565b60405180910390f35b34801561030c57600080fd5b5061032760048036038101906103229190612cd3565b6109ce565b005b34801561033557600080fd5b50610350600480360381019061034b9190612bb4565b6109ee565b60405161035d9190612cb8565b60405180910390f35b34801561037257600080fd5b5061038d60048036038101906103889190612bb4565b610a87565b60405161039a9190612cb8565b60405180910390f35b3480156103af57600080fd5b506103ca60048036038101906103c59190612bb4565b610afd565b6040516103d79190612c22565b60405180910390f35b3480156103ec57600080fd5b5061040760048036038101906104029190612d26565b610b0f565b6040516104149190612cb8565b60405180910390f35b34801561042957600080fd5b50610432610bc9565b005b34801561044057600080fd5b50610449610bdd565b6040516104569190612c22565b60405180910390f35b34801561046b57600080fd5b5061048660048036038101906104819190612bb4565b610c07565b60405161049a989796959493929190612d53565b60405180910390f35b3480156104af57600080fd5b506104ca60048036038101906104c59190612bb4565b610de7565b6040516104d79190612cb8565b60405180910390f35b3480156104ec57600080fd5b506104f5611000565b6040516105029190612b5c565b60405180910390f35b34801561051757600080fd5b50610532600480360381019061052d9190612f1b565b611092565b005b34801561054057600080fd5b5061055b60048036038101906105569190613028565b6111c4565b005b34801561056957600080fd5b50610584600480360381019061057f9190613109565b6111da565b005b34801561059257600080fd5b5061059b6111f7565b6040516105a89190612cb8565b60405180910390f35b3480156105bd57600080fd5b506105d860048036038101906105d3919061318c565b611201565b6040516105e59190612ab1565b60405180910390f35b3480156105fa57600080fd5b50610603611230565b6040516106109190612cb8565b60405180910390f35b610633600480360381019061062e9190612bb4565b611236565b005b34801561064157600080fd5b5061065c60048036038101906106579190612bb4565b6114e7565b6040516106699190612b5c565b60405180910390f35b34801561067e57600080fd5b50610699600480360381019061069491906131cc565b611550565b6040516106a69190612ab1565b60405180910390f35b3480156106bb57600080fd5b506106d660048036038101906106d19190612d26565b6115e4565b005b60007f780e9d63000000000000000000000000000000000000000000000000000000007bffffffffffffffffffffffffffffffffffffffffffffffffffffffff1916827bffffffffffffffffffffffffffffffffffffffffffffffffffffffff1916148061074b575061074a8261166a565b5b9050919050565b6060600080546107619061323b565b80601f016020809104026020016040519081016040528092919081815260200182805461078d9061323b565b80156107da5780601f106107af576101008083540402835291602001916107da565b820191906000526020600020905b8154815290600101906020018083116107bd57829003601f168201915b5050505050905090565b60006107ef8261174c565b506107f9826117d4565b9050919050565b610812828261080d611811565b611819565b5050565b6000600880549050905090565b600073ffffffffffffffffffffffffffffffffffffffff168273ffffffffffffffffffffffffffffffffffffffff16036108955760006040517f64a0ae9200000000000000000000000000000000000000000000000000000000815260040161088c9190612c22565b60405180910390fd5b60006108a983836108a4611811565b61182b565b90508373ffffffffffffffffffffffffffffffffffffffff168173ffffffffffffffffffffffffffffffffffffffff161461091f578382826040517f64283d7b0000000000000000000000000000000000000000000000000000000081526004016109169392919061326c565b60405180910390fd5b50505050565b600061093083610b0f565b82106109755782826040517fa57d13dc00000000000000000000000000000000000000000000000000000000815260040161096c9291906132a3565b60405180910390fd5b600660008473ffffffffffffffffffffffffffffffffffffffff1673ffffffffffffffffffffffffffffffffffffffff168152602001908152602001600020600083815260200190815260200160002054905092915050565b6109e9838383604051806020016040528060008152506111da565b505050565b6000806109fa83610afd565b9050600073ffffffffffffffffffffffffffffffffffffffff168173ffffffffffffffffffffffffffffffffffffffff1603610a6b576040517f08c379a0000000000000000000000000000000000000000000000000000000008152600401610a6290613318565b60405180910390fd5b600f600084815260200190815260200160002054915050919050565b6000610a91610816565b8210610ad7576000826040517fa57d13dc000000000000000000000000000000000000000000000000000000008152600401610ace9291906132a3565b60405180910390fd5b60088281548110610aeb57610aea613338565b5b90600052602060002001549050919050565b6000610b088261174c565b9050919050565b60008073ffffffffffffffffffffffffffffffffffffffff168273ffffffffffffffffffffffffffffffffffffffff1603610b825760006040517f89c62b64000000000000000000000000000000000000000000000000000000008152600401610b799190612c22565b60405180910390fd5b600360008373ffffffffffffffffffffffffffffffffffffffff1673ffffffffffffffffffffffffffffffffffffffff168152602001908152602001600020549050919050565b610bd1611948565b610bdb60006119cf565b565b6000600a60009054906101000a900473ffffffffffffffffffffffffffffffffffffffff16905090565b600b602052806000526040600020600091509050806000015490806001015490806002018054610c369061323b565b80601f0160208091040260200160405190810160405280929190818152602001828054610c629061323b565b8015610caf5780601f10610c8457610100808354040283529160200191610caf565b820191906000526020600020905b815481529060010190602001808311610c9257829003601f168201915b505050505090806003018054610cc49061323b565b80601f0160208091040260200160405190810160405280929190818152602001828054610cf09061323b565b8015610d3d5780601f10610d1257610100808354040283529160200191610d3d565b820191906000526020600020905b815481529060010190602001808311610d2057829003601f168201915b505050505090806004018054610d529061323b565b80601f0160208091040260200160405190810160405280929190818152602001828054610d7e9061323b565b8015610dcb5780601f10610da057610100808354040283529160200191610dcb565b820191906000526020600020905b815481529060010190602001808311610dae57829003601f168201915b5050505050908060050154908060060154908060070154905088565b600080600b6000848152602001908152602001600020604051806101000160405290816000820154815260200160018201548152602001600282018054610e2d9061323b565b80601f0160208091040260200160405190810160405280929190818152602001828054610e599061323b565b8015610ea65780601f10610e7b57610100808354040283529160200191610ea6565b820191906000526020600020905b815481529060010190602001808311610e8957829003601f168201915b50505050508152602001600382018054610ebf9061323b565b80601f0160208091040260200160405190810160405280929190818152602001828054610eeb9061323b565b8015610f385780601f10610f0d57610100808354040283529160200191610f38565b820191906000526020600020905b815481529060010190602001808311610f1b57829003601f168201915b50505050508152602001600482018054610f519061323b565b80601f0160208091040260200160405190810160405280929190818152602001828054610f7d9061323b565b8015610fca5780601f10610f9f57610100808354040283529160200191610fca565b820191906000526020600020905b815481529060010190602001808311610fad57829003601f168201915b50505050508152602001600582015481526020016006820154815260200160078201548152505090508060c00151915050919050565b60606001805461100f9061323b565b80601f016020809104026020016040519081016040528092919081815260200182805461103b9061323b565b80156110885780601f1061105d57610100808354040283529160200191611088565b820191906000526020600020905b81548152906001019060200180831161106b57829003601f168201915b5050505050905090565b61109a611948565b604051806101000160405280600d5481526020018481526020018781526020018681526020018581526020018381526020018281526020016000815250600b6000600d548152602001908152602001600020600082015181600001556020820151816001015560408201518160020190816111159190613513565b50606082015181600301908161112b9190613513565b5060808201518160040190816111419190613513565b5060a0820151816005015560c0820151816006015560e08201518160070155905050600d600081548092919061117690613614565b91905055507febda877d31be42f925e684e9c5450d119b0ea17ddad096b3278bb4fedd0fb51f600d54878585856040516111b495949392919061365c565b60405180910390a1505050505050565b6111d66111cf611811565b8383611a95565b5050565b6111e5848484610823565b6111f184848484611c04565b50505050565b6000600d54905090565b600e6020528160005260406000206020528060005260406000206000915091509054906101000a900460ff1681565b600d5481565b600b60008281526020019081526020016000206001015434101561128f576040517f08c379a000000000000000000000000000000000000000000000000000000000815260040161128690613702565b60405180910390fd5b600e600082815260200190815260200160002060003373ffffffffffffffffffffffffffffffffffffffff1673ffffffffffffffffffffffffffffffffffffffff16815260200190815260200160002060009054906101000a900460ff161561132d576040517f08c379a000000000000000000000000000000000000000000000000000000000815260040161132490613794565b60405180910390fd5b600b600082815260200190815260200160002060050154600b6000838152602001908152602001600020600701541061139b576040517f08c379a000000000000000000000000000000000000000000000000000000000815260040161139290613800565b60405180910390fd5b600060016113a7610816565b6113b19190613820565b90506113bd3382611dbb565b600c600083815260200190815260200160002060008154809291906113e190613614565b9190505550600c600083815260200190815260200160002054600b6000848152602001908152602001600020600701819055506001600e600084815260200190815260200160002060003373ffffffffffffffffffffffffffffffffffffffff1673ffffffffffffffffffffffffffffffffffffffff16815260200190815260200160002060006101000a81548160ff02191690831515021790555081600f6000838152602001908152602001600020819055507fbf4d92ef8429e8f41c7077e3a79df9c2021167c22d3d9331f6587faae78827608233600c6000868152602001908152602001600020546040516114db93929190613854565b60405180910390a15050565b60606114f28261174c565b5060006114fd611eb4565b9050600081511161151d5760405180602001604052806000815250611548565b8061152784611ecb565b6040516020016115389291906138c7565b6040516020818303038152906040525b915050919050565b6000600560008473ffffffffffffffffffffffffffffffffffffffff1673ffffffffffffffffffffffffffffffffffffffff16815260200190815260200160002060008373ffffffffffffffffffffffffffffffffffffffff1673ffffffffffffffffffffffffffffffffffffffff16815260200190815260200160002060009054906101000a900460ff16905092915050565b6115ec611948565b600073ffffffffffffffffffffffffffffffffffffffff168173ffffffffffffffffffffffffffffffffffffffff160361165e5760006040517f1e4fbdf70000000000000000000000000000000000000000000000000000000081526004016116559190612c22565b60405180910390fd5b611667816119cf565b50565b60007f80ac58cd000000000000000000000000000000000000000000000000000000007bffffffffffffffffffffffffffffffffffffffffffffffffffffffff1916827bffffffffffffffffffffffffffffffffffffffffffffffffffffffff1916148061173557507f5b5e139f000000000000000000000000000000000000000000000000000000007bffffffffffffffffffffffffffffffffffffffffffffffffffffffff1916827bffffffffffffffffffffffffffffffffffffffffffffffffffffffff1916145b80611745575061174482611f99565b5b9050919050565b60008061175883612003565b9050600073ffffffffffffffffffffffffffffffffffffffff168173ffffffffffffffffffffffffffffffffffffffff16036117cb57826040517f7e2732890000000000000000000000000000000000000000000000000000000081526004016117c29190612cb8565b60405180910390fd5b80915050919050565b60006004600083815260200190815260200160002060009054906101000a900473ffffffffffffffffffffffffffffffffffffffff169050919050565b600033905090565b6118268383836001612040565b505050565b600080611839858585612205565b9050600073ffffffffffffffffffffffffffffffffffffffff168173ffffffffffffffffffffffffffffffffffffffff160361187d576118788461241f565b6118bc565b8473ffffffffffffffffffffffffffffffffffffffff168173ffffffffffffffffffffffffffffffffffffffff16146118bb576118ba8185612468565b5b5b600073ffffffffffffffffffffffffffffffffffffffff168573ffffffffffffffffffffffffffffffffffffffff16036118fe576118f9846125c9565b61193d565b8473ffffffffffffffffffffffffffffffffffffffff168173ffffffffffffffffffffffffffffffffffffffff161461193c5761193b858561269a565b5b5b809150509392505050565b611950611811565b73ffffffffffffffffffffffffffffffffffffffff1661196e610bdd565b73ffffffffffffffffffffffffffffffffffffffff16146119cd57611991611811565b6040517f118cdaa70000000000000000000000000000000000000000000000000000000081526004016119c49190612c22565b60405180910390fd5b565b6000600a60009054906101000a900473ffffffffffffffffffffffffffffffffffffffff16905081600a60006101000a81548173ffffffffffffffffffffffffffffffffffffffff021916908373ffffffffffffffffffffffffffffffffffffffff1602179055508173ffffffffffffffffffffffffffffffffffffffff168173ffffffffffffffffffffffffffffffffffffffff167f8be0079c531659141344cd1fd0a4f28419497f9722a3daafe3b4186f6b6457e060405160405180910390a35050565b600073ffffffffffffffffffffffffffffffffffffffff168273ffffffffffffffffffffffffffffffffffffffff1603611b0657816040517f5b08ba18000000000000000000000000000000000000000000000000000000008152600401611afd9190612c22565b60405180910390fd5b80600560008573ffffffffffffffffffffffffffffffffffffffff1673ffffffffffffffffffffffffffffffffffffffff16815260200190815260200160002060008473ffffffffffffffffffffffffffffffffffffffff1673ffffffffffffffffffffffffffffffffffffffff16815260200190815260200160002060006101000a81548160ff0219169083151502179055508173ffffffffffffffffffffffffffffffffffffffff168373ffffffffffffffffffffffffffffffffffffffff167f17307eab39ab6107e8899845ad3d59bd9653f200f220920489ca2b5937696c3183604051611bf79190612ab1565b60405180910390a3505050565b60008373ffffffffffffffffffffffffffffffffffffffff163b1115611db5578273ffffffffffffffffffffffffffffffffffffffff1663150b7a02611c48611811565b8685856040518563ffffffff1660e01b8152600401611c6a9493929190613940565b6020604051808303816000875af1925050508015611ca657506040513d601f19601f82011682018060405250810190611ca391906139a1565b60015b611d2a573d8060008114611cd6576040519150601f19603f3d011682016040523d82523d6000602084013e611cdb565b606091505b506000815103611d2257836040517f64a0ae92000000000000000000000000000000000000000000000000000000008152600401611d199190612c22565b60405180910390fd5b805181602001fd5b63150b7a0260e01b7bffffffffffffffffffffffffffffffffffffffffffffffffffffffff1916817bffffffffffffffffffffffffffffffffffffffffffffffffffffffff191614611db357836040517f64a0ae92000000000000000000000000000000000000000000000000000000008152600401611daa9190612c22565b60405180910390fd5b505b50505050565b600073ffffffffffffffffffffffffffffffffffffffff168273ffffffffffffffffffffffffffffffffffffffff1603611e2d5760006040517f64a0ae92000000000000000000000000000000000000000000000000000000008152600401611e249190612c22565b60405180910390fd5b6000611e3b8383600061182b565b9050600073ffffffffffffffffffffffffffffffffffffffff168173ffffffffffffffffffffffffffffffffffffffff1614611eaf5760006040517f73c6ac6e000000000000000000000000000000000000000000000000000000008152600401611ea69190612c22565b60405180910390fd5b505050565b606060405180602001604052806000815250905090565b606060006001611eda84612725565b01905060008167ffffffffffffffff811115611ef957611ef8612df0565b5b6040519080825280601f01601f191660200182016040528015611f2b5781602001600182028036833780820191505090505b509050600082602001820190505b600115611f8e578080600190039150507f3031323334353637383961626364656600000000000000000000000000000000600a86061a8153600a8581611f8257611f816139ce565b5b04945060008503611f39575b819350505050919050565b60007f01ffc9a7000000000000000000000000000000000000000000000000000000007bffffffffffffffffffffffffffffffffffffffffffffffffffffffff1916827bffffffffffffffffffffffffffffffffffffffffffffffffffffffff1916149050919050565b60006002600083815260200190815260200160002060009054906101000a900473ffffffffffffffffffffffffffffffffffffffff169050919050565b80806120795750600073ffffffffffffffffffffffffffffffffffffffff168273ffffffffffffffffffffffffffffffffffffffff1614155b156121ad5760006120898461174c565b9050600073ffffffffffffffffffffffffffffffffffffffff168373ffffffffffffffffffffffffffffffffffffffff16141580156120f457508273ffffffffffffffffffffffffffffffffffffffff168173ffffffffffffffffffffffffffffffffffffffff1614155b801561210757506121058184611550565b155b1561214957826040517fa9fbf51f0000000000000000000000000000000000000000000000000000000081526004016121409190612c22565b60405180910390fd5b81156121ab57838573ffffffffffffffffffffffffffffffffffffffff168273ffffffffffffffffffffffffffffffffffffffff167f8c5be1e5ebec7d5bd14f71427d1e84f3dd0314c0f7b2291e5b200ac8c7c3b92560405160405180910390a45b505b836004600085815260200190815260200160002060006101000a81548173ffffffffffffffffffffffffffffffffffffffff021916908373ffffffffffffffffffffffffffffffffffffffff16021790555050505050565b60008061221184612003565b9050600073ffffffffffffffffffffffffffffffffffffffff168373ffffffffffffffffffffffffffffffffffffffff161461225357612252818486612878565b5b600073ffffffffffffffffffffffffffffffffffffffff168173ffffffffffffffffffffffffffffffffffffffff16146122e457612295600085600080612040565b6001600360008373ffffffffffffffffffffffffffffffffffffffff1673ffffffffffffffffffffffffffffffffffffffff168152602001908152602001600020600082825403925050819055505b600073ffffffffffffffffffffffffffffffffffffffff168573ffffffffffffffffffffffffffffffffffffffff1614612367576001600360008773ffffffffffffffffffffffffffffffffffffffff1673ffffffffffffffffffffffffffffffffffffffff168152602001908152602001600020600082825401925050819055505b846002600086815260200190815260200160002060006101000a81548173ffffffffffffffffffffffffffffffffffffffff021916908373ffffffffffffffffffffffffffffffffffffffff160217905550838573ffffffffffffffffffffffffffffffffffffffff168273ffffffffffffffffffffffffffffffffffffffff167fddf252ad1be2c89b69c2b068fc378daa952ba7f163c4a11628f55a4df523b3ef60405160405180910390a4809150509392505050565b6008805490506009600083815260200190815260200160002081905550600881908060018154018082558091505060019003906000526020600020016000909190919091505550565b600061247383610b0f565b9050600060076000848152602001908152602001600020549050818114612558576000600660008673ffffffffffffffffffffffffffffffffffffffff1673ffffffffffffffffffffffffffffffffffffffff168152602001908152602001600020600084815260200190815260200160002054905080600660008773ffffffffffffffffffffffffffffffffffffffff1673ffffffffffffffffffffffffffffffffffffffff168152602001908152602001600020600084815260200190815260200160002081905550816007600083815260200190815260200160002081905550505b6007600084815260200190815260200160002060009055600660008573ffffffffffffffffffffffffffffffffffffffff1673ffffffffffffffffffffffffffffffffffffffff16815260200190815260200160002060008381526020019081526020016000206000905550505050565b600060016008805490506125dd91906139fd565b905060006009600084815260200190815260200160002054905060006008838154811061260d5761260c613338565b5b90600052602060002001549050806008838154811061262f5761262e613338565b5b90600052602060002001819055508160096000838152602001908152602001600020819055506009600085815260200190815260200160002060009055600880548061267e5761267d613a31565b5b6001900381819060005260206000200160009055905550505050565b600060016126a784610b0f565b6126b191906139fd565b905081600660008573ffffffffffffffffffffffffffffffffffffffff1673ffffffffffffffffffffffffffffffffffffffff168152602001908152602001600020600083815260200190815260200160002081905550806007600084815260200190815260200160002081905550505050565b600080600090507a184f03e93ff9f4daa797ed6e38ed64bf6a1f0100000000000000008310612783577a184f03e93ff9f4daa797ed6e38ed64bf6a1f0100000000000000008381612779576127786139ce565b5b0492506040810190505b6d04ee2d6d415b85acef810000000083106127c0576d04ee2d6d415b85acef810000000083816127b6576127b56139ce565b5b0492506020810190505b662386f26fc1000083106127ef57662386f26fc1000083816127e5576127e46139ce565b5b0492506010810190505b6305f5e1008310612818576305f5e100838161280e5761280d6139ce565b5b0492506008810190505b612710831061283d576127108381612833576128326139ce565b5b0492506004810190505b606483106128605760648381612856576128556139ce565b5b0492506002810190505b600a831061286f576001810190505b80915050919050565b61288383838361293c565b61293757600073ffffffffffffffffffffffffffffffffffffffff168373ffffffffffffffffffffffffffffffffffffffff16036128f857806040517f7e2732890000000000000000000000000000000000000000000000000000000081526004016128ef9190612cb8565b60405180910390fd5b81816040517f177e802f00000000000000000000000000000000000000000000000000000000815260040161292e9291906132a3565b60405180910390fd5b505050565b60008073ffffffffffffffffffffffffffffffffffffffff168373ffffffffffffffffffffffffffffffffffffffff16141580156129f457508273ffffffffffffffffffffffffffffffffffffffff168473ffffffffffffffffffffffffffffffffffffffff1614806129b557506129b48484611550565b5b806129f357508273ffffffffffffffffffffffffffffffffffffffff166129db836117d4565b73ffffffffffffffffffffffffffffffffffffffff16145b5b90509392505050565b6000604051905090565b600080fd5b600080fd5b60007fffffffff0000000000000000000000000000000000000000000000000000000082169050919050565b612a4681612a11565b8114612a5157600080fd5b50565b600081359050612a6381612a3d565b92915050565b600060208284031215612a7f57612a7e612a07565b5b6000612a8d84828501612a54565b91505092915050565b60008115159050919050565b612aab81612a96565b82525050565b6000602082019050612ac66000830184612aa2565b92915050565b600081519050919050565b600082825260208201905092915050565b60005b83811015612b06578082015181840152602081019050612aeb565b60008484015250505050565b6000601f19601f8301169050919050565b6000612b2e82612acc565b612b388185612ad7565b9350612b48818560208601612ae8565b612b5181612b12565b840191505092915050565b60006020820190508181036000830152612b768184612b23565b905092915050565b6000819050919050565b612b9181612b7e565b8114612b9c57600080fd5b50565b600081359050612bae81612b88565b92915050565b600060208284031215612bca57612bc9612a07565b5b6000612bd884828501612b9f565b91505092915050565b600073ffffffffffffffffffffffffffffffffffffffff82169050919050565b6000612c0c82612be1565b9050919050565b612c1c81612c01565b82525050565b6000602082019050612c376000830184612c13565b92915050565b612c4681612c01565b8114612c5157600080fd5b50565b600081359050612c6381612c3d565b92915050565b60008060408385031215612c8057612c7f612a07565b5b6000612c8e85828601612c54565b9250506020612c9f85828601612b9f565b9150509250929050565b612cb281612b7e565b82525050565b6000602082019050612ccd6000830184612ca9565b92915050565b600080600060608486031215612cec57612ceb612a07565b5b6000612cfa86828701612c54565b9350506020612d0b86828701612c54565b9250506040612d1c86828701612b9f565b9150509250925092565b600060208284031215612d3c57612d3b612a07565b5b6000612d4a84828501612c54565b91505092915050565b600061010082019050612d69600083018b612ca9565b612d76602083018a612ca9565b8181036040830152612d888189612b23565b90508181036060830152612d9c8188612b23565b90508181036080830152612db08187612b23565b9050612dbf60a0830186612ca9565b612dcc60c0830185612ca9565b612dd960e0830184612ca9565b9998505050505050505050565b600080fd5b600080fd5b7f4e487b7100000000000000000000000000000000000000000000000000000000600052604160045260246000fd5b612e2882612b12565b810181811067ffffffffffffffff82111715612e4757612e46612df0565b5b80604052505050565b6000612e5a6129fd565b9050612e668282612e1f565b919050565b600067ffffffffffffffff821115612e8657612e85612df0565b5b612e8f82612b12565b9050602081019050919050565b82818337600083830152505050565b6000612ebe612eb984612e6b565b612e50565b905082815260208101848484011115612eda57612ed9612deb565b5b612ee5848285612e9c565b509392505050565b600082601f830112612f0257612f01612de6565b5b8135612f12848260208601612eab565b91505092915050565b60008060008060008060c08789031215612f3857612f37612a07565b5b600087013567ffffffffffffffff811115612f5657612f55612a0c565b5b612f6289828a01612eed565b965050602087013567ffffffffffffffff811115612f8357612f82612a0c565b5b612f8f89828a01612eed565b955050604087013567ffffffffffffffff811115612fb057612faf612a0c565b5b612fbc89828a01612eed565b9450506060612fcd89828a01612b9f565b9350506080612fde89828a01612b9f565b92505060a0612fef89828a01612b9f565b9150509295509295509295565b61300581612a96565b811461301057600080fd5b50565b60008135905061302281612ffc565b92915050565b6000806040838503121561303f5761303e612a07565b5b600061304d85828601612c54565b925050602061305e85828601613013565b9150509250929050565b600067ffffffffffffffff82111561308357613082612df0565b5b61308c82612b12565b9050602081019050919050565b60006130ac6130a784613068565b612e50565b9050828152602081018484840111156130c8576130c7612deb565b5b6130d3848285612e9c565b509392505050565b600082601f8301126130f0576130ef612de6565b5b8135613100848260208601613099565b91505092915050565b6000806000806080858703121561312357613122612a07565b5b600061313187828801612c54565b945050602061314287828801612c54565b935050604061315387828801612b9f565b925050606085013567ffffffffffffffff81111561317457613173612a0c565b5b613180878288016130db565b91505092959194509250565b600080604083850312156131a3576131a2612a07565b5b60006131b185828601612b9f565b92505060206131c285828601612c54565b9150509250929050565b600080604083850312156131e3576131e2612a07565b5b60006131f185828601612c54565b925050602061320285828601612c54565b9150509250929050565b7f4e487b7100000000000000000000000000000000000000000000000000000000600052602260045260246000fd5b6000600282049050600182168061325357607f821691505b6020821081036132665761326561320c565b5b50919050565b60006060820190506132816000830186612c13565b61328e6020830185612ca9565b61329b6040830184612c13565b949350505050565b60006040820190506132b86000830185612c13565b6132c56020830184612ca9565b9392505050565b7f546f6b656e20646f6573206e6f742065786973742e0000000000000000000000600082015250565b6000613302601583612ad7565b915061330d826132cc565b602082019050919050565b60006020820190508181036000830152613331816132f5565b9050919050565b7f4e487b7100000000000000000000000000000000000000000000000000000000600052603260045260246000fd5b60008190508160005260206000209050919050565b60006020601f8301049050919050565b600082821b905092915050565b6000600883026133c97fffffffffffffffffffffffffffffffffffffffffffffffffffffffffffffffff8261338c565b6133d3868361338c565b95508019841693508086168417925050509392505050565b6000819050919050565b600061341061340b61340684612b7e565b6133eb565b612b7e565b9050919050565b6000819050919050565b61342a836133f5565b61343e61343682613417565b848454613399565b825550505050565b600090565b613453613446565b61345e818484613421565b505050565b5b818110156134825761347760008261344b565b600181019050613464565b5050565b601f8211156134c75761349881613367565b6134a18461337c565b810160208510156134b0578190505b6134c46134bc8561337c565b830182613463565b50505b505050565b600082821c905092915050565b60006134ea600019846008026134cc565b1980831691505092915050565b600061350383836134d9565b9150826002028217905092915050565b61351c82612acc565b67ffffffffffffffff81111561353557613534612df0565b5b61353f825461323b565b61354a828285613486565b600060209050601f83116001811461357d576000841561356b578287015190505b61357585826134f7565b8655506135dd565b601f19841661358b86613367565b60005b828110156135b35784890151825560018201915060208501945060208101905061358e565b868310156135d057848901516135cc601f8916826134d9565b8355505b6001600288020188555050505b505050505050565b7f4e487b7100000000000000000000000000000000000000000000000000000000600052601160045260246000fd5b600061361f82612b7e565b91507fffffffffffffffffffffffffffffffffffffffffffffffffffffffffffffffff8203613651576136506135e5565b5b600182019050919050565b600060a0820190506136716000830188612ca9565b81810360208301526136838187612b23565b90506136926040830186612ca9565b61369f6060830185612ca9565b6136ac6080830184612ca9565b9695505050505050565b7f496e73756666696369656e742066756e64730000000000000000000000000000600082015250565b60006136ec601283612ad7565b91506136f7826136b6565b602082019050919050565b6000602082019050818103600083015261371b816136df565b9050919050565b7f4361726420616c726561647920626f756768742062792074686973206163636f60008201527f756e740000000000000000000000000000000000000000000000000000000000602082015250565b600061377e602383612ad7565b915061378982613722565b604082019050919050565b600060208201905081810360008301526137ad81613771565b9050919050565b7f4d617820737570706c7920726561636865640000000000000000000000000000600082015250565b60006137ea601283612ad7565b91506137f5826137b4565b602082019050919050565b60006020820190508181036000830152613819816137dd565b9050919050565b600061382b82612b7e565b915061383683612b7e565b925082820190508082111561384e5761384d6135e5565b5b92915050565b60006060820190506138696000830186612ca9565b6138766020830185612c13565b6138836040830184612ca9565b949350505050565b600081905092915050565b60006138a182612acc565b6138ab818561388b565b93506138bb818560208601612ae8565b80840191505092915050565b60006138d38285613896565b91506138df8284613896565b91508190509392505050565b600081519050919050565b600082825260208201905092915050565b6000613912826138eb565b61391c81856138f6565b935061392c818560208601612ae8565b61393581612b12565b840191505092915050565b60006080820190506139556000830187612c13565b6139626020830186612c13565b61396f6040830185612ca9565b81810360608301526139818184613907565b905095945050505050565b60008151905061399b81612a3d565b92915050565b6000602082840312156139b7576139b6612a07565b5b60006139c58482850161398c565b91505092915050565b7f4e487b7100000000000000000000000000000000000000000000000000000000600052601260045260246000fd5b6000613a0882612b7e565b9150613a1383612b7e565b9250828203905081811115613a2b57613a2a6135e5565b5b92915050565b7f4e487b7100000000000000000000000000000000000000000000000000000000600052603160045260246000fdfea2646970667358221220221ea51be5d92d545d5c6646a10768a7bca141fadde06f71f0e052e21074d6ab64736f6c63430008180033",
  "linkReferences": {},
  "deployedLinkReferences": {}
}