{
  "_format": "hh-sol-artifact-1",
  "contractName": "TicketSystem",
  "sourceName": "contracts/TicketSystem.sol",
  "abi": [
    {
      "inputs": [
        {
          "internalType": "address",
          "name": "privilegeCardAddress",
          "type": "address"
        }
      ],
      "stateMutability": "nonpayable",
      "type": "constructor"
    },
    {
      "anonymous": false,
      "inputs": [
        {
          "indexed": false,
          "internalType": "address",
          "name": "buyer",
          "type": "address"
        },
        {
          "indexed": false,
          "internalType": "uint256",
          "name": "amountPaid",
          "type": "uint256"
        },
        {
          "indexed": false,
          "internalType": "uint256",
          "name": "discountApplied",
          "type": "uint256"
        }
      ],
      "name": "TicketBought",
      "type": "event"
    },
    {
      "inputs": [],
      "name": "TICKET_PRICE",
      "outputs": [
        {
          "internalType": "uint256",
          "name": "",
          "type": "uint256"
        }
      ],
      "stateMutability": "view",
      "type": "function"
    },
    {
      "inputs": [],
      "name": "buyTicket",
      "outputs": [],
      "stateMutability": "payable",
      "type": "function"
    },
    {
      "inputs": [],
      "name": "getMyTickets",
      "outputs": [
        {
          "components": [
            {
              "internalType": "uint256",
              "name": "id",
              "type": "uint256"
            },
            {
              "internalType": "uint256",
              "name": "pricePaid",
              "type": "uint256"
            },
            {
              "internalType": "uint256",
              "name": "discountApplied",
              "type": "uint256"
            }
          ],
          "internalType": "struct TicketSystem.Ticket[]",
          "name": "",
          "type": "tuple[]"
        }
      ],
      "stateMutability": "view",
      "type": "function"
    },
    {
      "inputs": [],
      "name": "nextTicketId",
      "outputs": [
        {
          "internalType": "uint256",
          "name": "",
          "type": "uint256"
        }
      ],
      "stateMutability": "view",
      "type": "function"
    },
    {
      "inputs": [
        {
          "internalType": "address",
          "name": "",
          "type": "address"
        },
        {
          "internalType": "uint256",
          "name": "",
          "type": "uint256"
        }
      ],
      "name": "ticketsOwnedByUser",
      "outputs": [
        {
          "internalType": "uint256",
          "name": "id",
          "type": "uint256"
        },
        {
          "internalType": "uint256",
          "name": "pricePaid",
          "type": "uint256"
        },
        {
          "internalType": "uint256",
          "name": "discountApplied",
          "type": "uint256"
        }
      ],
      "stateMutability": "view",
      "type": "function"
    }
  ],
  "bytecode": "0x608060405234801561001057600080fd5b50604051610c5c380380610c5c833981810160405281019061003291906100db565b806000806101000a81548173ffffffffffffffffffffffffffffffffffffffff021916908373ffffffffffffffffffffffffffffffffffffffff16021790555050610108565b600080fd5b600073ffffffffffffffffffffffffffffffffffffffff82169050919050565b60006100a88261007d565b9050919050565b6100b88161009d565b81146100c357600080fd5b50565b6000815190506100d5816100af565b92915050565b6000602082840312156100f1576100f0610078565b5b60006100ff848285016100c6565b91505092915050565b610b45806101176000396000f3fe60806040526004361061004a5760003560e01c80631a95f15f1461004f57806358f141271461007a5780636031a52f146100b9578063e1d10d85146100e4578063edca914c1461010f575b600080fd5b34801561005b57600080fd5b50610064610119565b6040516100719190610636565b60405180910390f35b34801561008657600080fd5b506100a1600480360381019061009c91906106e0565b610124565b6040516100b093929190610720565b60405180910390f35b3480156100c557600080fd5b506100ce61016b565b6040516100db9190610636565b60405180910390f35b3480156100f057600080fd5b506100f9610171565b6040516101069190610857565b60405180910390f35b61011761022b565b005b662386f26fc1000081565b6002602052816000526040600020818154811061014057600080fd5b9060005260206000209060030201600091509150508060000154908060010154908060020154905083565b60015481565b6060600260003373ffffffffffffffffffffffffffffffffffffffff1673ffffffffffffffffffffffffffffffffffffffff168152602001908152602001600020805480602002602001604051908101604052809291908181526020016000905b8282101561022257838290600052602060002090600302016040518060600160405290816000820154815260200160018201548152602001600282015481525050815260200190600101906101d2565b50505050905090565b60006102363361040d565b90506000606482662386f26fc1000061024f91906108a8565b6102599190610919565b662386f26fc1000061026b919061094a565b9050803410156102b0576040517f08c379a00000000000000000000000000000000000000000000000000000000081526004016102a7906109db565b60405180910390fd5b600060405180606001604052806001548152602001348152602001848152509050600260003373ffffffffffffffffffffffffffffffffffffffff1673ffffffffffffffffffffffffffffffffffffffff16815260200190815260200160002081908060018154018082558091505060019003906000526020600020906003020160009091909190915060008201518160000155602082015181600101556040820151816002015550507f97fac0ce6558f4accbb4696915809c0ef7023ffe7ba9454e94d49fb652aae1d533348560405161038d93929190610a0a565b60405180910390a1600160008154809291906103a890610a41565b919050555081341115610408573373ffffffffffffffffffffffffffffffffffffffff166108fc83346103db919061094a565b9081150290604051600060405180830381858888f19350505050158015610406573d6000803e3d6000fd5b505b505050565b60008060008054906101000a900473ffffffffffffffffffffffffffffffffffffffff1673ffffffffffffffffffffffffffffffffffffffff166370a08231846040518263ffffffff1660e01b81526004016104699190610a89565b602060405180830381865afa158015610486573d6000803e3d6000fd5b505050506040513d601f19601f820116820180604052508101906104aa9190610ab9565b90506000915060005b818110156106165760008060009054906101000a900473ffffffffffffffffffffffffffffffffffffffff1673ffffffffffffffffffffffffffffffffffffffff16632f745c5986846040518363ffffffff1660e01b8152600401610519929190610ae6565b602060405180830381865afa158015610536573d6000803e3d6000fd5b505050506040513d601f19601f8201168201806040525081019061055a9190610ab9565b905060008060009054906101000a900473ffffffffffffffffffffffffffffffffffffffff1673ffffffffffffffffffffffffffffffffffffffff166393ce1b1a836040518263ffffffff1660e01b81526004016105b89190610636565b602060405180830381865afa1580156105d5573d6000803e3d6000fd5b505050506040513d601f19601f820116820180604052508101906105f99190610ab9565b905084811115610607578094505b505080806001019150506104b3565b5050919050565b6000819050919050565b6106308161061d565b82525050565b600060208201905061064b6000830184610627565b92915050565b600080fd5b600073ffffffffffffffffffffffffffffffffffffffff82169050919050565b600061068182610656565b9050919050565b61069181610676565b811461069c57600080fd5b50565b6000813590506106ae81610688565b92915050565b6106bd8161061d565b81146106c857600080fd5b50565b6000813590506106da816106b4565b92915050565b600080604083850312156106f7576106f6610651565b5b60006107058582860161069f565b9250506020610716858286016106cb565b9150509250929050565b60006060820190506107356000830186610627565b6107426020830185610627565b61074f6040830184610627565b949350505050565b600081519050919050565b600082825260208201905092915050565b6000819050602082019050919050565b61078c8161061d565b82525050565b6060820160008201516107a86000850182610783565b5060208201516107bb6020850182610783565b5060408201516107ce6040850182610783565b50505050565b60006107e08383610792565b60608301905092915050565b6000602082019050919050565b600061080482610757565b61080e8185610762565b935061081983610773565b8060005b8381101561084a57815161083188826107d4565b975061083c836107ec565b92505060018101905061081d565b5085935050505092915050565b6000602082019050818103600083015261087181846107f9565b905092915050565b7f4e487b7100000000000000000000000000000000000000000000000000000000600052601160045260246000fd5b60006108b38261061d565b91506108be8361061d565b92508282026108cc8161061d565b915082820484148315176108e3576108e2610879565b5b5092915050565b7f4e487b7100000000000000000000000000000000000000000000000000000000600052601260045260246000fd5b60006109248261061d565b915061092f8361061d565b92508261093f5761093e6108ea565b5b828204905092915050565b60006109558261061d565b91506109608361061d565b925082820390508181111561097857610977610879565b5b92915050565b600082825260208201905092915050565b7f496e73756666696369656e742066756e64732073656e74000000000000000000600082015250565b60006109c560178361097e565b91506109d08261098f565b602082019050919050565b600060208201905081810360008301526109f4816109b8565b9050919050565b610a0481610676565b82525050565b6000606082019050610a1f60008301866109fb565b610a2c6020830185610627565b610a396040830184610627565b949350505050565b6000610a4c8261061d565b91507fffffffffffffffffffffffffffffffffffffffffffffffffffffffffffffffff8203610a7e57610a7d610879565b5b600182019050919050565b6000602082019050610a9e60008301846109fb565b92915050565b600081519050610ab3816106b4565b92915050565b600060208284031215610acf57610ace610651565b5b6000610add84828501610aa4565b91505092915050565b6000604082019050610afb60008301856109fb565b610b086020830184610627565b939250505056fea2646970667358221220586a5fe132adfd0d26bf84effe7b559ce29066de072f9c4c4ccef70b3e6be73464736f6c63430008180033",
  "linkReferences": {},
  "deployedLinkReferences": {}
}