{
  "_format": "hh-sol-artifact-1",
  "contractName": "TicketSystem",
  "sourceName": "contracts/TicketSystem.sol",
  "abi": [
    {
      "inputs": [
        {
          "internalType": "address",
          "name": "privilegeCardAddress",
          "type": "address"
        }
      ],
      "stateMutability": "nonpayable",
      "type": "constructor"
    },
    {
      "inputs": [],
      "name": "TICKET_PRICE",
      "outputs": [
        {
          "internalType": "uint256",
          "name": "",
          "type": "uint256"
        }
      ],
      "stateMutability": "view",
      "type": "function"
    },
    {
      "inputs": [],
      "name": "buyTicket",
      "outputs": [],
      "stateMutability": "payable",
      "type": "function"
    }
  ],
  "bytecode": "0x608060405234801561001057600080fd5b50604051610748380380610748833981810160405281019061003291906100db565b806000806101000a81548173ffffffffffffffffffffffffffffffffffffffff021916908373ffffffffffffffffffffffffffffffffffffffff16021790555050610108565b600080fd5b600073ffffffffffffffffffffffffffffffffffffffff82169050919050565b60006100a88261007d565b9050919050565b6100b88161009d565b81146100c357600080fd5b50565b6000815190506100d5816100af565b92915050565b6000602082840312156100f1576100f0610078565b5b60006100ff848285016100c6565b91505092915050565b610631806101176000396000f3fe6080604052600436106100295760003560e01c80631a95f15f1461002e578063edca914c14610059575b600080fd5b34801561003a57600080fd5b50610043610063565b604051610050919061037b565b60405180910390f35b61006161006e565b005b662386f26fc1000081565b600061007933610152565b90506000606482662386f26fc1000061009291906103c5565b61009c9190610436565b662386f26fc100006100ae9190610467565b9050803410156100f3576040517f08c379a00000000000000000000000000000000000000000000000000000000081526004016100ea906104f8565b60405180910390fd5b8034111561014e573373ffffffffffffffffffffffffffffffffffffffff166108fc82346101219190610467565b9081150290604051600060405180830381858888f1935050505015801561014c573d6000803e3d6000fd5b505b5050565b60008060008054906101000a900473ffffffffffffffffffffffffffffffffffffffff1673ffffffffffffffffffffffffffffffffffffffff166370a08231846040518263ffffffff1660e01b81526004016101ae9190610559565b602060405180830381865afa1580156101cb573d6000803e3d6000fd5b505050506040513d601f19601f820116820180604052508101906101ef91906105a5565b90506000915060005b8181101561035b5760008060009054906101000a900473ffffffffffffffffffffffffffffffffffffffff1673ffffffffffffffffffffffffffffffffffffffff16632f745c5986846040518363ffffffff1660e01b815260040161025e9291906105d2565b602060405180830381865afa15801561027b573d6000803e3d6000fd5b505050506040513d601f19601f8201168201806040525081019061029f91906105a5565b905060008060009054906101000a900473ffffffffffffffffffffffffffffffffffffffff1673ffffffffffffffffffffffffffffffffffffffff166393ce1b1a836040518263ffffffff1660e01b81526004016102fd919061037b565b602060405180830381865afa15801561031a573d6000803e3d6000fd5b505050506040513d601f19601f8201168201806040525081019061033e91906105a5565b90508481111561034c578094505b505080806001019150506101f8565b5050919050565b6000819050919050565b61037581610362565b82525050565b6000602082019050610390600083018461036c565b92915050565b7f4e487b7100000000000000000000000000000000000000000000000000000000600052601160045260246000fd5b60006103d082610362565b91506103db83610362565b92508282026103e981610362565b91508282048414831517610400576103ff610396565b5b5092915050565b7f4e487b7100000000000000000000000000000000000000000000000000000000600052601260045260246000fd5b600061044182610362565b915061044c83610362565b92508261045c5761045b610407565b5b828204905092915050565b600061047282610362565b915061047d83610362565b925082820390508181111561049557610494610396565b5b92915050565b600082825260208201905092915050565b7f496e73756666696369656e742066756e64732073656e74000000000000000000600082015250565b60006104e260178361049b565b91506104ed826104ac565b602082019050919050565b60006020820190508181036000830152610511816104d5565b9050919050565b600073ffffffffffffffffffffffffffffffffffffffff82169050919050565b600061054382610518565b9050919050565b61055381610538565b82525050565b600060208201905061056e600083018461054a565b92915050565b600080fd5b61058281610362565b811461058d57600080fd5b50565b60008151905061059f81610579565b92915050565b6000602082840312156105bb576105ba610574565b5b60006105c984828501610590565b91505092915050565b60006040820190506105e7600083018561054a565b6105f4602083018461036c565b939250505056fea2646970667358221220c694a56afb61542d8a68d70e190ed33a56f007dc04d9d1fd6b25cc069ef7e73064736f6c63430008180033",
  "linkReferences": {},
  "deployedLinkReferences": {}
}